:10000000580A00202D1400008914000091140000EB
:1000100099140000A11400008914000000000000E1
:100020000000000000000000000000008914000033
:1000300089140000000000008914000079170000F6
:10004000891400008914000089140000891400003C
:10005000891400008914000089140000891400002C
:10006000891400008914000089140000891400001C
:10007000891400008914000089140000891400000C
:1000800089140000891400008914000089140000FC
:1000900089140000891400008914000089140000EC
:1000A00089140000891400008914000089140000DC
:1000B000891400008914000080B400AF074B1B684E
:1000C0001B68002B05D0054B1B6803F10802034B8E
:1000D0001A60BD465DF8047B704700BF3400002005
:1000E00080B586B000AFF8607A603B600B46FB726B
:1000F0000023FB827B6A00221A603A4B1B68002BAC
:1001000019D1FB7AF86819467A68374B00F0BEFDC2
:100110000346002B04D07B6A01221A6000235DE0B5
:10012000314B1B685A682F4B1A602F4B1B681A689B
:100130002E4B1A6049E048E03B6A1B881A462B4B5D
:100140001B689A4203D9294B1B689BB201E03B6AAA
:100150001B88FB82234B1A68FB8A104639681A46B3
:1001600001F086FE3B6A1A88FB8AD31A9AB23B6A70
:100170001A80FB8A3A6813443B601C4B1A68FB8A5E
:10018000D21A1A4B1A60174B1A68FB8A1A44154B7D
:100190001A60164B1B68002B17D1FFF78DFF124B0F
:1001A0001B681B68002B06D17B6A01221A600D4B6D
:1001B00000221A6009E00C4B1B685A68094B1A6050
:1001C000094B1B681A68094B1A607B6A1B68002B75
:1001D00003D13B6A1B88002BAED100231846183789
:1001E000BD4680BD4C00002034000020500000209F
:1001F00080B586B000AFF8607B600B46FB7213469B
:10020000BB7201237B61BB7AF86819467A68204B80
:1002100000F0CEFD0346002B01D0002333E007F1B0
:100220000B031846012100F033FC0346002B01D0DC
:10023000012328E0FB7A082B08D11648042100F09E
:1002400027FC0346002B01D001231CE017E0104BD4
:100250001B685A680E4B1B681B681046194600F055
:1002600017FC0346002B01D001230CE0FFF724FF0D
:10027000074B1B681B68002B01D100237B617B6946
:10028000002BE4D1002318461837BD4680BD00BFBF
:10029000340000203C00002080B584B000AF02464E
:1002A0000B46FA71BB7101F01BFA0346002B01D01B
:1002B000012326E0FB79002B19D00023FB7307F103
:1002C0000F031846012100F0E3FB0346002B01D089
:1002D000012316E0FB79FB7307F10F031846012198
:1002E00000F0D6FB0346002B01D0012309E0BB79C7
:1002F000184600F01BFC0346002B01D0012300E050
:10030000002318461037BD4680BD00BF80B485B0BD
:1003100000AF02460B46FA71BB7197F90730052B07
:1003200000F2B18001A252F823F000BF45030000A3
:1003300069030000BD030000F70300003D04000056
:1003400081040000BB79002B0ADB092B02DD0A2B9C
:1003500003D005E00123FB7305E00123FB7302E0FA
:10036000FF23FB7300BF91E0BB79092B22D801A2C8
:1003700052F823F09D030000A9030000A903000028
:10038000AF030000A9030000AF030000AF030000AB
:10039000A3030000A9030000AF0300000423FB73C4
:1003A0000BE00523FB7308E00323FB7305E0022346
:1003B000FB7302E0FF23FB7300BF67E0BB79033BE5
:1003C000062B14D801A252F823F000BFE903000065
:1003D000EF030000E9030000E9030000EF03000061
:1003E000EF030000E90300000323FB7302E0FF2397
:1003F000FB7300BF4AE0BB79013B082B1AD801A26E
:1004000052F823F029040000290400002904000008
:10041000290400002904000029040000350400001C
:10042000290400002F0400000423FB7305E00623C9
:10043000FB7302E0FF23FB7300BF27E0BB79082BAF
:100440001AD801A252F823F06D04000073040000D2
:1004500073040000730400007304000073040000C0
:1004600073040000730400006D0400000623FB7396
:1004700005E00523FB7302E0FF23FB7300BF05E0EB
:100480000623FB7302E0FF23FB7300BFFB7B5BB221
:1004900018461437BD465DF8047B704780B588B0B8
:1004A00002AF78600B467B807B687B6118E2954BDE
:1004B0001B78002B36D17B691B783B747B69013339
:1004C0007B617B88013B9BB27B803A7C8D4B5A7071
:1004D0008C4B5B780A2B0ED18B4B01221A600820C3
:1004E0000121FFF7D9FE0346002B03D0874B0022E2
:1004F0001A6014E213E2834B1A78824B5B7852B293
:1005000010461946FFF702FF03461A467D4B1A7044
:100510007C4B1B785BB2B3F1FF3F03D17B4B0022D6
:100520001A60FCE1774B1B785BB2012B22D1784833
:100530007969042201F09CFC7B6904337B617B8830
:10054000043B9BB27B806F4B1A786E4B5B7852B248
:1005500010461946FFF7DAFE03461A46694B1A7031
:10056000684B1B785BB2B3F1FF3F03D1674B0022AE
:100570001A60D4E1634B1B785BB2022B22D1654831
:100580007969042201F074FC7B6904337B617B8808
:10059000043B9BB27B805B4B1A785A4B5B7852B220
:1005A00010461946FFF7B2FE03461A46554B1A701D
:1005B000544B1B785BB2B3F1FF3F03D1534B002286
:1005C0001A60ACE14F4B1B785BB2032B45D1002383
:1005D000FB604C4B99684B4B5A784A4B5B68B81C94
:1005E000009007F10C000190084611461A467B69FD
:1005F000FFF776FD0346FB74FB7C012B03D1434BD5
:1006000000221A608BE1FB7C002B0BD00120012122
:10061000FFF742FE0346002B03D03C4B00221A603A
:100620007DE17CE1FB68002B17D0364B1A78354B07
:100630005B7852B210461946FFF768FE03461A4629
:10064000304B1A702F4B1B785BB2B3F1FF3F04D1D4
:100650002E4B00221A6000BF61E12A4B1B785BB26F
:10066000042B40F0FE80274B5B78082B00F2DD80E6
:1006700001A252F823F000BF9D060000DB06000037
:100680001907000043070000A1070000CB07000086
:10069000FB07000033080000B106000000F09CFAE0
:1006A0000346002B03D0194B00221A6037E1C1E04A
:1006B000144B9B68184600F059FA0346002B0BD0E8
:1006C00003200121FFF7E8FD0346002B03D00F4B69
:1006D00000221A6023E122E1ACE00A4B9B68184635
:1006E00000F0A8FA0346002B0BD004200121FFF7ED
:1006F000D3FD0346002B03D0044B00221A600EE109
:100700000DE197E0400000203800002000000020AC
:100710004800002044000020824B9B68184600F0EF
:10072000A3FA0346002B0BD005200121FFF7B4FDEF
:100730000346002B03D07C4B00221A60EFE0EEE072
:1007400078E0784B9A68774B5B681046194600F062
:10075000FFFA0346002B0BD006200121FFF79CFD7A
:100760000346002B03D0704B00221A60D7E0D6E07E
:100770006C4B9A686B4B5B681046194600F006FBA1
:100780000346002B0BD007200121FFF785FD034610
:10079000002B03D0644B00221A60C0E0BFE049E0A8
:1007A000604B9B68184600F0E7FB0346002B0BD01C
:1007B00008200121FFF770FD0346002B03D05A4BA0
:1007C00000221A60ABE0AAE034E0564B9A68554B21
:1007D0005B681046194600F0E5FB0346002B0BD082
:1007E00009200121FFF758FD0346002B03D04E4B93
:1007F00000221A6093E092E01CE04A4B9A68494B51
:100800005B681046194600F0DFFB0346002B0BD057
:100810000A200121FFF740FD0346002B03D0424B85
:1008200000221A607BE07AE004E03F4B00221A606D
:1008300075E000BF3B4B1A783A4B5B7852B21046DA
:100840001946FFF763FD03461A46364B1A70354BBF
:100850001B785BB2B3F1FF3F03D1334B00221A6028
:100860005DE0304B1B785BB2052B39D12D4B99687D
:100870002C4B5A782B4B5B6808460121FFF7B8FCDC
:100880000346BB74BB7C012B03D1274B00221A60AB
:1008900045E0BB7C002B0BD002200121FFF7FCFCC4
:1008A0000346002B03D0204B00221A6037E036E0CD
:1008B0001C4B1A781B4B5B7852B210461946FFF757
:1008C00025FD03461A46174B1A70164B1B785BB270
:1008D000B3F1FF3F03D1144B00221A601FE003E085
:1008E0007B88002B7FF4E3AD0E4B1B785BB2062BAD
:1008F00014D10C4B5B78092B10D001237B747B7CCB
:1009000000201946FFF7C8FC0346002B03D0064B16
:1009100000221A6003E0034B00221A7000BF183750
:10092000BD4680BD400000200000002080B582B0A0
:1009300000AF0023FB7100F017FC03463B603B68EF
:10094000002B05D00D4B1B68002B01D0012300E0CC
:1009500000233B603B68002B09D0094B1B68002B30
:1009600002D00223FB7104E00023FB7101E00123AC
:10097000FB71FB7918460837BD4680BD000000209A
:100980003800002080B500AF1148402100F048FB3E
:100990000346002B01D1012318E00D4B1B681846BC
:1009A00000F04EFB02460B4B1A600A4B1A680A4BCA
:1009B0001A60084B1B685A1C084B1A60084B00222F
:1009C0001A80054B1B6800221A700023184680BD50
:1009D0005400002058000020640000205C0000202B
:1009E0006000002080B582B000AF78603960786820
:1009F000396800F051FB03461A4600239A4201D1A0
:100A0000012314E0012200239A4201D101230EE0C8
:100A100000F0E4FD0346002B01D0012307E0FFF7BF
:100A2000B1FF0346002B01D0012300E0002318464C
:100A30000837BD4680BD00BF80B500AF00F0DAFDCD
:100A400000F044FB0023184680BD00BF80B500AF16
:100A50000D4B1A680D4B1B8801339BB210460121C8
:100A60001A4600F045FB03461A4600239A4201D17C
:100A7000032307E0FFF786FF0346002B01D0032383
:100A800000E00023184680BD5400002060000020D4
:100A900080B586B000AF786039600023FB757B6855
:100AA0003B6137E01F4B1B883A2B08D1FFF7CEFF85
:100AB0000346FB75FB7D002B01D0FB7D2EE0194B1F
:100AC0001B88C3F13A03FB81FA893B689A4202D33F
:100AD0003B689BB200E0FB89BB60134B1B68184668
:100AE0003969BA6801F0C4F93A68BB68D31A3B6047
:100AF000BB689AB20B4B1B8813449AB2094B1A80FD
:100B00003A69BB6813443B61074B1A68BB681A44D7
:100B1000054B1A603B68002BC4D1FB7D1846183783
:100B2000BD4680BD600000205C00002080B582B022
:100B300000AF0346FB71FB79002B04D00A4B1B6806
:100B400002221A7003E0084B1B6801221A70FFF79B
:100B50007DFF0346032B01D1032300E00023184649
:100B60000837BD4680BD00BF6400002080B483B05C
:100B700000AF78607B68002B01D0022300E00023E7
:100B800018460C37BD465DF8047B704780B584B0CD
:100B900000AFF860B9607A6007F1080318460421D5
:100BA00000F050FD0346002B00D0FEE73B1D184629
:100BB000042100F047FD0346002B00D0FEE7BB6890
:100BC000F868194600F03EFD0346002B00D0FEE712
:100BD0001037BD4680BD00BF80B582B000AF052391
:100BE000FB71FB1D18460121FFF752FF0346002B46
:100BF00001D003231AE00123FB71FB1D18460121DC
:100C0000FFF746FF0346002B01D003230EE0042329
:100C1000FB71FB79FB71FB1D18460121FFF738FFC3
:100C20000346002B01D0032300E0002318460837B9
:100C3000BD4680BD80B584B000AF78600023FB73F3
:100C40007B68002B08D1012000F084FC00F020FE1E
:100C5000012000F089FC01E00223FB73FB7B1846B6
:100C60001037BD4680BD00BF80B485B000AF78604E
:100C70000023FB737B68002B01D00223FB73FB7BFB
:100C800018461437BD465DF8047B704780B489B0C0
:100C900000AFF8607A603B600B46FB720023FB7785
:100CA0003B6800221A60FB68002B03D00223FB770D
:100CB000FB7F3EE0FB7A032B37D1214B1B68002BD7
:100CC0002FD10023BB611F4B7B611F4BBA690421ED
:100CD00043F83210BB695A1CBA611B4ADB0013444B
:100CE0007A695A60194B3B61174BBA69042143F882
:100CF0003210BB695A1CBA61134ADB0013443A69CB
:100D00005A60114BBA69002143F83210BB695A1C72
:100D1000BA610D4ADB00134400225A60084B0122DD
:100D20001A603B68084A1A6002E00123FB7700BFA3
:100D3000FB7F18462437BD465DF8047B704700BF33
:100D4000C800002008020020680000200C020020DB
:100D500080B582B000AF786039607B68002B01D02D
:100D600002230EE03B68012B0AD1022000F0F2FBC7
:100D700000F010FD022000F0F7FB00BF002300E0B0
:100D8000012318460837BD4680BD00BF80B483B03C
:100D900000AF786039607B68002B01D0022300E04F
:100DA000002318460C37BD465DF8047B704700BF32
:100DB00080B48FB000AFF8607A603B600B46FB7286
:100DC000002387F837303B6800221A60FB68002B4D
:100DD00005D0022387F8373097F83730B5E0FB7A33
:100DE000032B74D0042B3AD0012B40F0A8805A4B2F
:100DF0001B68002B2FD100233B63584BFB62584BE1
:100E00003A6B042143F832103B6B5A1C3A63544A44
:100E1000DB001344FA6A5A60524BBB62504B3A6B88
:100E2000042143F832103B6B5A1C3A634C4ADB00F6
:100E30001344BA6A5A604A4B3A6B002143F83210A5
:100E40003B6B5A1C3A63464ADB00134400225A604B
:100E5000414B01221A603B68414A1A6073E0424BE1
:100E60001B68002B2FD100237B623C4B3B623F4B26
:100E70007A6A042143F832107B6A5A1C7A623B4A30
:100E8000DB0013443A6A5A60364BFB61374B7A6A8F
:100E9000042143F832107B6A5A1C7A62334ADB0021
:100EA0001344FA695A60314B7A6A002143F83210D0
:100EB0007B6A5A1C7A622D4ADB00134400225A6076
:100EC000294B01221A603B68284A1A603BE0284BF4
:100ED0001B68002B2FD10023BB61204B7B61254B6E
:100EE000BA69042143F83210BB695A1CBA61214A1D
:100EF000DB0013447A695A601A4B3B611D4BBA6997
:100F0000042143F83210BB695A1CBA61194ADB004C
:100F100013443A695A60174BBA69002143F83210FA
:100F2000BB695A1CBA61134ADB00134400225A60A1
:100F30000F4B01221A603B680E4A1A6003E001233E
:100F400087F8373000BF97F8373018463C37BD4632
:100F50005DF8047B704700BFCC0000201002002029
:100F60009800002014020020D0000020B0000020D3
:100F7000D40000208000002080B582B000AF7860EF
:100F80007B68002B01D0022308E0032000F0E2FA86
:100F900000F094FC032000F0E7FA0023184608371D
:100FA000BD4680BD80B483B000AF786039607B6897
:100FB000002B01D0022300E0012318460C37BD4668
:100FC0005DF8047B704700BF80B483B000AF7860E9
:100FD00039607B68002B01D0022300E00123184612
:100FE0000C37BD465DF8047B704700BF80B483B00A
:100FF00000AF0346FB71FB79012B02D0022B02D01C
:1010000003E0054B02E0054B00E0002318460C37D7
:10101000BD465DF8047B70475C0100209C01002008
:1010200080B483B000AF78600B467B807B68002281
:101030001A60012318460C37BD465DF8047B7047E3
:1010400080B483B000AF7860034B18460C37BD46C0
:101050005DF8047B704700BF6101002080B483B05D
:1010600000AF78600B467B807B6800221A6001230A
:1010700018460C37BD465DF8047B704780B483B0DA
:1010800000AF7860034B18460C37BD465DF8047B13
:10109000704700BFA101002080B582B000AF78602A
:1010A00039607868396800F009F90246064B1A6021
:1010B000054B1B68B3F1FF3F01D1002300E0012382
:1010C00018460837BD4680BDD800002080B500AF67
:1010D000064B1B68184600F059F90346002B14BF55
:1010E00000230123DBB2184680BD00BFD8000020DA
:1010F00080B588B000AF786013460A46FA703B802E
:10110000FB78FB733B88FB61FB690533BB61FB69C3
:10111000BB60FB781846FFF769FF78617B69002B9D
:1011200001D100231AE0FA7B7B691A707B695A1C93
:1011300007F1080310461946042200F099FE094BF6
:101140001B6818467969BA6900F054F838613B6940
:10115000B3F1FF3F01D1002300E0012318462037FF
:10116000BD4680BDD800002080B584B000AF1F4BC5
:101170001A68FB1D10461946012200F06DF8F86050
:10118000FB68B3F1FF3F01D100232BE0174B1A6836
:1011900007F1080310461946042200F05DF8F860D4
:1011A000FB68B3F1FF3F01D100231BE00F4B1A682E
:1011B000BB6810460E491A4600F04EF8F860FB680E
:1011C000B3F1FF3F01D100230CE0FB79012B08D1E3
:1011D000BB689BB206481946FFF760F900BF0123C0
:1011E00000E0002318461037BD4680BDD80000201F
:1011F000DC00002080B58AB000AFF860B9607A608A
:1012000000237B62BB683B624FF0FF33FB611BE056
:101210007A68FB699A4238BF1346BB6107F1140331
:10122000F868396ABA6900F05DF878627B6AB3F1F0
:10123000FF3F01D17B6A0BE07B697A68D31A7B6040
:101240007B693A6A13443B627B68002BE0D17B6A7E
:1012500018462837BD4680BD80B58AB000AFF8601B
:10126000B9607A6000237B62BB683B624FF0FF335A
:10127000FB611BE07A68FB699A4238BF1346BB6189
:1012800007F11403F868396ABA6900F051F8786216
:101290007B6AB3F1FF3F01D17B6A0BE07B697A681F
:1012A000D31A7B607B693A6A13443B627B68002BEC
:1012B000E0D17B6A18462837BD4680BD80B483B034
:1012C00000AF78603960064B054AD26A42F01002DE
:1012D000DA62002318460C37BD465DF8047B704780
:1012E00000D0004080B487B000AFF860B9607A6089
:1012F0003B60BB683B6100237B6108E00B4A3B69B4
:10130000591C39611B7813607B6901337B617A69F1
:101310007B689A42F2D33B687A681A6000231846C9
:101320001C37BD465DF8047B704700BF00D000400D
:1013300080B487B000AFF860B9607A603B60BB688A
:101340007B613B6800221A600BE07B695A1C7A6162
:101350000D4A1268D2B21A703B681B685A1C3B686F
:101360001A603B681A687B689A4205D2064B9B69F3
:1013700003F01003002BE8D0002318461C37BD46AD
:101380005DF8047B704700BF00D0004080B483B09C
:1013900000AF7860002318460C37BD465DF8047B2B
:1013A000704700BF80B586B000AF0023FB750023F7
:1013B0003B6101237B600023FB600023BB60F86876
:1013C000B968FFF70FFB0346FB75FB7D002B0CBFD5
:1013D00000230123DBB23B6115E0FFF7A7FA0346C8
:1013E000FB75FB7D002B0ED0FB7D022B09D1FFF797
:1013F00023FB0346002B0CBF00230123DBB23B6120
:1014000001E001233B617B68002B02D03B69002B8C
:10141000E3D03B69002B03D000BF7B68002BFCD1DD
:10142000FB7D18461837BD4680BD00BF80B582B031
:1014300000AF104B7B60104B3B6007E03B681A1D10
:101440003A607A68111D796012681A603A680B4B2D
:101450009A42F3D30A480B494FF000028842B8BFC2
:1014600040F8042BFFF6FAAFFFF79CFF0837BD46A4
:1014700080BD00BFF01F00000000002034000020ED
:10148000340000201802002080B400AFFEE700BF47
:1014900080B400AFFEE700BF80B400AFFEE700BF3E
:1014A00080B400AFFEE700BF80B582B000AF7860C7
:1014B00000F00AF8034804217A68FFF767FB083751
:1014C000BD4680BDDC01002080B400AF064B1A6829
:1014D000064B1B68D21A064B1B681A44044B1A6051
:1014E000BD465DF8047B7047E0010020E401002068
:1014F000DC01002080B500AF00F004F90246014B8A
:101500001A6080BDE001002080B500AF00F0FAF85D
:101510000246014B1A6080BDE401002080B582B014
:1015200000AF78607868FFF7BFFFFFF7EDFF08377F
:10153000BD4680BD80B584B000AF78607B68DB437A
:10154000FB60FFF7D7FFF868FFF7AEFF1037BD4627
:1015500080BD00BF80B582B000AF78607868FFF7CB
:10156000DDFF0837BD4680BD80B582B000AF786032
:101570007868FFF7DFFF0837BD4680BD80B500AF54
:1015800011484021FFF76AFD0346002B01D10123DA
:1015900018E00D4B1B681846FFF770FD02460B4B19
:1015A0001A600A4B1A680A4B1A60084B1B685A1CCF
:1015B000084B1A60084B00221A80054B1B6800225A
:1015C0001A700023184680BDE8010020EC010020BD
:1015D000F8010020F0010020F401002080B500AFE8
:1015E000FFF7CCFF0346002B01D0012300E00023CE
:1015F000184680BD80B400AFBD465DF8047B7047DF
:1016000080B500AF0D4B1A680D4B1B8801339BB2A0
:10161000104602211A46FFF76BFD03461A460023C7
:101620009A4201D1032307E0FFF7A8FF0346002BEE
:1016300001D0032300E00023184680BDE80100200C
:10164000F401002080B586B000AF786039600023D7
:10165000FB757B683B6137E01F4B1B883A2B08D139
:10166000FFF7CEFF0346FB75FB7D002B01D0FB7D12
:101670002EE0194B1B88C3F13A03FB81FA893B68C2
:101680009A4202D33B689BB200E0FB89BB60134BDC
:101690001B6818463969BA6800F0EAFB3A68BB680B
:1016A000D31A3B60BB689AB20B4B1B8813449AB2A7
:1016B000094B1A803A69BB6813443B61074B1A68AF
:1016C000BB681A44054B1A603B68002BC4D1FB7DF4
:1016D00018461837BD4680BDF4010020F0010020F7
:1016E00080B500AF064B1B6801221A70FFF788FF18
:1016F0000346032B01D1032300E00023184680BDDD
:10170000F801002080B483B000AF00237B60154B4C
:101710001B78002B11D1144B1B686FF07F421A60AD
:10172000124B1B6807221A60114B1B686FF07F4237
:101730001A600C4B01221A7007E00D4B1B681B68E6
:10174000C3F1FF1303F57F437B600A4B1B687A6884
:1017500013447B607B6818460C37BD465DF8047BFC
:10176000704700BFFC010020040000200C00002096
:10177000080000200002002080B400AF044B1B686A
:1017800003F18072024B1A60BD465DF8047B70471E
:101790000002002080B582B000AF3A4B9A693A4B04
:1017A0001B681046194600F09DF903467B60354BD7
:1017B000DB691846796800F033FB0346002B03D041
:1017C000304BDB697B600BE02E4B1B6A1846796857
:1017D00000F044FB0346002B02D02A4B1B6A7B60BF
:1017E000284B1A68284B1B681046194600F022FB4C
:1017F0000346002B2FD0244B1A68224B5B681046FF
:10180000194600F017FB0346002B24D01D4BDA6865
:101810001D4B5B681046194600F064F903463B60B7
:10182000184B1B691846396800F0FAFA0346002B7A
:1018300003D0144B1B693B6010E0124B5B691846E8
:10184000396800F00BFB0346002B00D106E00D4B7E
:101850005B693B6002E00B4B9B683B6038687968D2
:1018600000F036F803461A46084B1A607868396863
:1018700000F030F803461A46044B5A600837BD465C
:1018800080BD00BF100000200802002010020020D0
:1018900080B500AF064B00221A60064800210822DE
:1018A00000F05CFB04480021082200F057FB80BDDB
:1018B00004020020080200201002002080B400AFC3
:1018C000BD465DF8047B704780F0004002E000BF39
:1018D00081F0004142001FBF5FEA410392EA030F1B
:1018E0007FEA226C7FEA236C6AD04FEA1262D2EB65
:1018F0001363C1BFD218414048404140B8BF5B426A
:10190000192B88BF704710F0004F40F4000020F002
:101910007F4018BF404211F0004F41F4000121F018
:101920007F4118BF494292EA030F3FD0A2F1010262
:1019300041FA03FC10EB0C00C3F1200301FA03F1A0
:1019400000F0004302D5494260EB4000B0F5000FC3
:1019500013D3B0F1807F06D340084FEA310102F182
:101960000102FE2A51D2B1F1004F40EBC25008BF34
:1019700020F0010040EA03007047490040EB0000FE
:1019800010F4000FA2F10102EDD1B0FA80FCACF12D
:10199000080CB2EB0C0200FA0CF0AABF00EBC2502C
:1019A00052421843BCBFD0401843704792F0000F1A
:1019B00081F4000106BF80F400000132013BB5E76D
:1019C0004FEA41037FEA226C18BF7FEA236C21D0E3
:1019D00092EA030F04D092F0000F08BF0846704748
:1019E00090EA010F1CBF0020704712F07F4F04D116
:1019F000400028BF40F00040704712F100723CBF29
:101A000000F50000704700F0004343F0FE4040F452
:101A1000000070477FEA226216BF08467FEA236310
:101A20000146420206BF5FEA412390EA010F40F4FB
:101A3000800070474FF0000304E000BF10F0004347
:101A400048BF40425FEA000C08BF704743F096432E
:101A500001464FF000001CE050EA010208BF704749
:101A60004FF000030AE000BF50EA010208BF7047D0
:101A700011F0004302D5404261EB41015FEA010CE5
:101A800002BF84460146002043F0B64308BFA3F1DD
:101A90008053A3F50003BCFA8CF2083AA3EBC253BF
:101AA00010DB01FA02FC634400FA02FCC2F12002DE
:101AB000BCF1004F20FA02F243EB020008BF20F015
:101AC0000100704702F1200201FA02FCC2F120027B
:101AD00050EA4C0021FA02F243EB020008BF20EA70
:101AE000DC7070474FF0FF0C1CEAD0521EBF1CEA9E
:101AF000D15392EA0C0F93EA0C0F6FD01A4480EA8C
:101B0000010C400218BF5FEA41211ED04FF0006374
:101B100043EA501043EA5111A0FB01310CF00040A0
:101B2000B1F5000F3EBF490041EAD3715B0040EAC6
:101B3000010062F17F02FD2A1DD8B3F1004F40EB96
:101B4000C25008BF20F00100704790F0000F0CF069
:101B5000004C08BF49024CEA502040EA51207F3A2D
:101B6000C2BFD2F1FF0340EAC250704740F4000008
:101B70004FF00003013A5DDC12F1190FDCBF00F0F9
:101B800000407047C2F10002410021FA02F1C2F1A7
:101B9000200200FA02FC5FEA310040F1000053EA43
:101BA0004C0308BF20EADC70704792F0000F00F091
:101BB000004C02BF400010F4000F013AF9D040EA97
:101BC0000C0093F0000F01F0004C02BF490011F42B
:101BD000000F013BF9D041EA0C018FE70CEAD15329
:101BE00092EA0C0F18BF93EA0C0F0AD030F0004CA9
:101BF00018BF31F0004CD8D180EA010000F000405D
:101C0000704790F0000F17BF90F0004F084691F01A
:101C1000000F91F0004F14D092EA0C0F01D1420254
:101C20000FD193EA0C0F03D14B0218BF084608D11D
:101C300080EA010000F0004040F0FE4040F4000067
:101C4000704740F0FE4040F4400070474FF0FF0CFA
:101C50001CEAD0521EBF1CEAD15392EA0C0F93EA41
:101C60000C0F69D0A2EB030280EA010C49024FEA93
:101C7000402037D04FF0805343EA111143EA10134C
:101C80000CF000408B4238BF5B0042F17D024FF404
:101C9000000C8B4224BF5B1A40EA0C00B3EB510FDF
:101CA00024BFA3EB510340EA5C00B3EB910F24BFC8
:101CB000A3EB910340EA9C00B3EBD10F24BFA3EB4D
:101CC000D10340EADC001B0118BF5FEA1C1CE0D115
:101CD000FD2A3FF650AF8B4240EBC25008BF20F0C8
:101CE000010070470CF0004C4CEA50207F32C2BF1C
:101CF000D2F1FF0340EAC250704740F400004FF0B9
:101D00000003013A37E792F0000F00F0004C02BFE9
:101D1000400010F4000F013AF9D040EA0C0093F0B3
:101D2000000F01F0004C02BF490011F4000F013B0D
:101D3000F9D041EA0C0195E70CEAD15392EA0C0F75
:101D400008D142027FF47DAF93EA0C0F7FF470AFAD
:101D5000084676E793EA0C0F04D14B023FF44CAFF0
:101D600008466EE730F0004C18BF31F0004CCAD185
:101D700030F000427FF45CAF31F000437FF43CAFC1
:101D80005FE700BF4FF0FF3C06E000BF4FF0010CE3
:101D900002E000BF4FF0010C4DF804CD4FEA4002C5
:101DA0004FEA41037FEA226C18BF7FEA236C11D00F
:101DB00001B052EA530C18BF90EA010F58BFB2EBC2
:101DC000030088BFC81738BF6FEAE17018BF40F042
:101DD000010070477FEA226C02D15FEA402C05D1F6
:101DE0007FEA236CE4D15FEA412CE1D05DF8040B7B
:101DF000704700BF844608466146FFE70FB5FFF70E
:101E0000C9FF002848BF10F1000F0FBD4DF808EDC5
:101E1000FFF7F4FF0CBF012000205DF808FB00BFB6
:101E20004DF808EDFFF7EAFF34BF012000205DF810
:101E300008FB00BF4DF808EDFFF7E0FF94BF01205D
:101E400000205DF808FB00BF4DF808EDFFF7D2FF5A
:101E500094BF012000205DF808FB00BF4DF808ED9D
:101E6000FFF7C8FF34BF012000205DF808FB00BF6A
:101E7000844641EA000313F0030349D1403A23D3D7
:101E80000B6803604B6843608B688360CB68C360FA
:101E90000B6903614B6943618B698361CB69C361E2
:101EA0000B6A03624B6A43628B6A8362CB6AC362CA
:101EB0000B6B03634B6B43638B6B8363CB6BC363B2
:101EC00040304031403ADBD230320BD30B680360F4
:101ED0004B6843608B688360CB68C36010301031FF
:101EE000103AF3D20C3205D351F8043B40F8043BCE
:101EF000043AF9D2043208D0D2071CBF11F8013BD2
:101F000000F8013B01D30B8803806046704700BF97
:101F1000082A13D38B07B1D010F00303AED0C3F15E
:101F20000403D21ADB071CBF11F8013B00F8013B88
:101F3000A4D331F8023B20F8023B9FE7043AD9D3FF
:101F4000013A11F8013B00F8013BF9D20B7803701C
:101F50004B7843708B78837060467047F0B4840789
:101F600043D0541E002A3ED0CDB2034603E0621E89
:101F7000002C38D0144603F8015B9A07F7D1032CE4
:101F80002AD9CDB245EA05250F2C45EA054515D9D4
:101F9000A4F110073F0903F1100606EB07161A46D5
:101FA000156055609560D5601032B242F8D104F0EA
:101FB0000F040137032C03EB07130DD91E462246ED
:101FC000043A032A46F8045BFAD8221F22F00302DF
:101FD0000432134404F003042CB1C9B21C4403F8C6
:101FE000011BA342FBD1F0BC704714460346C6E771
:101FF0000100000014E000E018E000E010E000E064
:102000000000C8C10000C8410000000000004040BE
:1020100000002042000000009A99993F00004842C9
:04202000000048C2B2
:040000030000142DB8
:00000001FF
