:10000000101000203517000091170000991700000C
:10001000A1170000A91700009117000000000000C0
:100020000000000000000000000000009117000028
:10003000911700000000000091170000811A0000D5
:100040009117000091170000911700009117000010
:100050009117000091170000911700009117000000
:1000600091170000911700009117000091170000F0
:1000700091170000911700009117000091170000E0
:1000800091170000911700009117000091170000D0
:1000900091170000911700009117000091170000C0
:1000A00091170000911700009117000091170000B0
:1000B000911700009117000080B400AF074B1B6838
:1000C0001B68002B05D0054B1B6803F10802034B8E
:1000D0001A60BD465DF8047B704700BF90040020A5
:1000E00080B586B000AFF8607A603B600B46FB726B
:1000F0000023FB827B6A00221A603A4B1B68002BAC
:1001000019D1FB7AF86819467A68374B00F0E4FD9C
:100110000346002B04D07B6A01221A6000235DE0B5
:10012000314B1B685A682F4B1A602F4B1B681A689B
:100130002E4B1A6049E048E03B6A1B881A462B4B5D
:100140001B689A4203D9294B1B689BB201E03B6AAA
:100150001B88FB82234B1A68FB8A104639681A46B3
:1001600004F08CF93B6A1A88FB8AD31A9AB23B6A6C
:100170001A80FB8A3A6813443B601C4B1A68FB8A5E
:10018000D21A1A4B1A60174B1A68FB8A1A44154B7D
:100190001A60164B1B68002B17D1FFF78DFF124B0F
:1001A0001B681B68002B06D17B6A01221A600D4B6D
:1001B00000221A6009E00C4B1B685A68094B1A6050
:1001C000094B1B681A68094B1A607B6A1B68002B75
:1001D00003D13B6A1B88002BAED100231846183789
:1001E000BD4680BDA804002090040020AC0400207F
:1001F00080B586B000AFF8607B600B46FB7213469B
:10020000BB7201237B61BB7AF86819467A68204B80
:1002100000F0C4FE0346002B01D0002333E007F1B9
:100220000B031846012100F033FC0346002B01D0DC
:10023000012328E0FB7A082B08D11648042100F09E
:1002400027FC0346002B01D001231CE017E0104BD4
:100250001B685A680E4B1B681B681046194600F055
:1002600017FC0346002B01D001230CE0FFF724FF0D
:10027000074B1B681B68002B01D100237B617B6946
:10028000002BE4D1002318461837BD4680BD00BFBF
:10029000900400209804002080B584B000AF02468E
:1002A0000B46FA71BB7101F09FFB0346002B01D096
:1002B000012326E0FB79002B19D00023FB7307F103
:1002C0000F031846012100F0E3FB0346002B01D089
:1002D000012316E0FB79FB7307F10F031846012198
:1002E00000F0D6FB0346002B01D0012309E0BB79C7
:1002F000184600F01BFC0346002B01D0012300E050
:10030000002318461037BD4680BD00BF80B485B0BD
:1003100000AF02460B46FA71BB7197F90730052B07
:1003200000F2B18001A252F823F000BF45030000A3
:1003300069030000BD030000F70300003D04000056
:1003400081040000BB79002B0ADB092B02DD0A2B9C
:1003500003D005E00123FB7305E00123FB7302E0FA
:10036000FF23FB7300BF91E0BB79092B22D801A2C8
:1003700052F823F09D030000A9030000A903000028
:10038000AF030000A9030000AF030000AF030000AB
:10039000A3030000A9030000AF0300000423FB73C4
:1003A0000BE00523FB7308E00323FB7305E0022346
:1003B000FB7302E0FF23FB7300BF67E0BB79033BE5
:1003C000062B14D801A252F823F000BFE903000065
:1003D000EF030000E9030000E9030000EF03000061
:1003E000EF030000E90300000323FB7302E0FF2397
:1003F000FB7300BF4AE0BB79013B082B1AD801A26E
:1004000052F823F029040000290400002904000008
:10041000290400002904000029040000350400001C
:10042000290400002F0400000423FB7305E00623C9
:10043000FB7302E0FF23FB7300BF27E0BB79082BAF
:100440001AD801A252F823F06D04000073040000D2
:1004500073040000730400007304000073040000C0
:1004600073040000730400006D0400000623FB7396
:1004700005E00523FB7302E0FF23FB7300BF05E0EB
:100480000623FB7302E0FF23FB7300BFFB7B5BB221
:1004900018461437BD465DF8047B704780B588B0B8
:1004A00002AF78600B467B807B687B6118E2954BDE
:1004B0001B78002B36D17B691B783B747B69013339
:1004C0007B617B88013B9BB27B803A7C8D4B5A7071
:1004D0008C4B5B780A2B0ED18B4B01221A600820C3
:1004E0000121FFF7D9FE0346002B03D0874B0022E2
:1004F0001A6014E213E2834B1A78824B5B7852B293
:1005000010461946FFF702FF03461A467D4B1A7044
:100510007C4B1B785BB2B3F1FF3F03D17B4B0022D6
:100520001A60FCE1774B1B785BB2012B22D1784833
:100530007969042203F0A2FF7B6904337B617B8825
:10054000043B9BB27B806F4B1A786E4B5B7852B248
:1005500010461946FFF7DAFE03461A46694B1A7031
:10056000684B1B785BB2B3F1FF3F03D1674B0022AE
:100570001A60D4E1634B1B785BB2022B22D1654831
:100580007969042203F07AFF7B6904337B617B88FD
:10059000043B9BB27B805B4B1A785A4B5B7852B220
:1005A00010461946FFF7B2FE03461A46554B1A701D
:1005B000544B1B785BB2B3F1FF3F03D1534B002286
:1005C0001A60ACE14F4B1B785BB2032B45D1002383
:1005D000FB604C4B99684B4B5A784A4B5B68B81C94
:1005E000009007F10C000190084611461A467B69FD
:1005F000FFF776FD0346FB74FB7C012B03D1434BD5
:1006000000221A608BE1FB7C002B0BD00120012122
:10061000FFF742FE0346002B03D03C4B00221A603A
:100620007DE17CE1FB68002B17D0364B1A78354B07
:100630005B7852B210461946FFF768FE03461A4629
:10064000304B1A702F4B1B785BB2B3F1FF3F04D1D4
:100650002E4B00221A6000BF61E12A4B1B785BB26F
:10066000042B40F0FE80274B5B78082B00F2DD80E6
:1006700001A252F823F000BF9D060000DB06000037
:100680001907000043070000A1070000CB07000086
:10069000FB07000033080000B106000000F09CFAE0
:1006A0000346002B03D0194B00221A6037E1C1E04A
:1006B000144B9B68184600F059FA0346002B0BD0E8
:1006C00003200121FFF7E8FD0346002B03D00F4B69
:1006D00000221A6023E122E1ACE00A4B9B68184635
:1006E00000F0CEFA0346002B0BD004200121FFF7C7
:1006F000D3FD0346002B03D0044B00221A600EE109
:100700000DE197E09C0400209404002000000020EC
:10071000A4040020A0040020824B9B68184600F02F
:10072000C9FA0346002B0BD005200121FFF7B4FDC9
:100730000346002B03D07C4B00221A60EFE0EEE072
:1007400078E0784B9A68774B5B681046194600F062
:10075000F5FB0346002B0BD006200121FFF79CFD83
:100760000346002B03D0704B00221A60D7E0D6E07E
:100770006C4B9A686B4B5B681046194600F0FCFBAB
:100780000346002B0BD007200121FFF785FD034610
:10079000002B03D0644B00221A60C0E0BFE049E0A8
:1007A000604B9B68184600F06BFD0346002B0BD096
:1007B00008200121FFF770FD0346002B03D05A4BA0
:1007C00000221A60ABE0AAE034E0564B9A68554B21
:1007D0005B681046194600F069FD0346002B0BD0FC
:1007E00009200121FFF758FD0346002B03D04E4B93
:1007F00000221A6093E092E01CE04A4B9A68494B51
:100800005B681046194600F063FD0346002B0BD0D1
:100810000A200121FFF740FD0346002B03D0424B85
:1008200000221A607BE07AE004E03F4B00221A606D
:1008300075E000BF3B4B1A783A4B5B7852B21046DA
:100840001946FFF763FD03461A46364B1A70354BBF
:100850001B785BB2B3F1FF3F03D1334B00221A6028
:100860005DE0304B1B785BB2052B39D12D4B99687D
:100870002C4B5A782B4B5B6808460121FFF7B8FCDC
:100880000346BB74BB7C012B03D1274B00221A60AB
:1008900045E0BB7C002B0BD002200121FFF7FCFCC4
:1008A0000346002B03D0204B00221A6037E036E0CD
:1008B0001C4B1A781B4B5B7852B210461946FFF757
:1008C00025FD03461A46174B1A70164B1B785BB270
:1008D000B3F1FF3F03D1144B00221A601FE003E085
:1008E0007B88002B7FF4E3AD0E4B1B785BB2062BAD
:1008F00014D10C4B5B78092B10D001237B747B7CCB
:1009000000201946FFF7C8FC0346002B03D0064B16
:1009100000221A6003E0034B00221A7000BF183750
:10092000BD4680BD9C0400200000002080B582B040
:1009300000AF0023FB7100F09BFD03463B603B686A
:10094000002B05D00D4B1B68002B01D0012300E0CC
:1009500000233B603B68002B09D0094B1B68002B30
:1009600002D00223FB7104E00023FB7101E00123AC
:10097000FB71FB7918460837BD4680BD000000209A
:100980009404002080B500AF1148402100F0CCFC59
:100990000346002B01D1012318E00D4B1B681846BC
:1009A00000F0D2FC02460B4B1A600A4B1A680A4B45
:1009B0001A60084B1B685A1C084B1A60084B00222F
:1009C0001A80054B1B6800221A700023184680BD50
:1009D000B0040020B4040020C0040020B8040020AB
:1009E000BC04002080B582B000AF786039607868C0
:1009F000396800F0D5FC03461A4600239A4201D11B
:100A0000012314E0012200239A4201D101230EE0C8
:100A100000F068FF0346002B01D0012307E0FFF739
:100A2000B1FF0346002B01D0012300E0002318464C
:100A30000837BD4680BD00BF80B500AF00F05EFF47
:100A400000F0C8FC0023184680BD00BF80B500AF91
:100A50000D4B1A680D4B1B8801339BB210460121C8
:100A60001A4600F0C9FC03461A4600239A4201D1F7
:100A7000032307E0FFF786FF0346002B01D0032383
:100A800000E00023184680BDB0040020BC04002014
:100A900080B586B000AF786039600023FB757B6855
:100AA0003B6137E01F4B1B883A2B08D1FFF7CEFF85
:100AB0000346FB75FB7D002B01D0FB7D2EE0194B1F
:100AC0001B88C3F13A03FB81FA893B689A4202D33F
:100AD0003B689BB200E0FB89BB60134B1B68184668
:100AE0003969BA6803F0CAFC3A68BB68D31A3B603C
:100AF000BB689AB20B4B1B8813449AB2094B1A80FD
:100B00003A69BB6813443B61074B1A68BB681A44D7
:100B1000054B1A603B68002BC4D1FB7D1846183783
:100B2000BD4680BDBC040020B804002080B582B062
:100B300000AF0346FB71FB79002B04D00A4B1B6806
:100B400002221A7003E0084B1B6801221A70FFF79B
:100B50007DFF0346032B01D1032300E00023184649
:100B60000837BD4680BD00BFC004002080B483B0FC
:100B700000AF78607B68002B01D0022300E00023E7
:100B800018460C37BD465DF8047B704780B584B0CD
:100B900000AFF860B9607A6007F1080318460421D5
:100BA00000F0D4FE0346002B00D0FEE73B1D1846A4
:100BB000042100F0CBFE0346002B00D0FEE7BB680B
:100BC000F868194600F0C2FE0346002B00D0FEE78D
:100BD0001037BD4680BD00BF80B582B000AF052391
:100BE000FB71FB1D18460121FFF752FF0346002B46
:100BF00001D0032340E00123FB71FB1D18460121B6
:100C0000FFF746FF0346002B01D0032334E0042303
:100C1000FB71FB79FB71FB1D18460121FFF738FFC3
:100C20000346002B01D0032326E00523BB71BB1D27
:100C300018460121FFF72CFF0346002B01D00323A8
:100C40001AE00023BB71BB1D18460121FFF720FFEE
:100C50000346002B01D003230EE00823BB71BB79B0
:100C6000BB71BB1D18460121FFF712FF0346002B85
:100C700001D0032300E0002318460837BD4680BD9D
:100C800080B584B000AF78600023FB737B68002BD5
:100C900008D1012000F0E2FD01F01AFE012000F071
:100CA000E7FD01E00223FB73FB7B18461037BD46CE
:100CB00080BD00BF80B485B000AF78600023FB73B7
:100CC0007B68002B01D00223FB73FB7B1846143793
:100CD000BD465DF8047B704780B495B000AFF86006
:100CE0007A603B600B46FB72002387F84F303B680D
:100CF00000221A60FB68002B05D0022387F84F30D2
:100D000097F84F30F3E0FB7A032B76D0082B40F0B6
:100D1000E8807A4B1B68002B6BD10023BB64784BB7
:100D20007B64784BBA6C102143F83210BB6C5A1CB0
:100D3000BA64744ADB0013447A6C5A60724B3B64A9
:100D4000704BBA6C102143F83210BB6C5A1CBA6459
:100D50006C4ADB0013443A6C5A606C4BFB63694B82
:100D6000BA6C042143F83210BB6C5A1CBA64654A51
:100D7000DB001344FA6B5A60654BBB63614BBA6C82
:100D8000042143F83210BB6C5A1CBA645D4ADB0084
:100D90001344BA6B5A605F4B7B635A4BBA6C0421A5
:100DA00043F83210BB6C5A1CBA64564ADB00134439
:100DB0007A6B5A60584B3B63524BBA6C012143F833
:100DC0003210BB6C5A1CBA644E4ADB0013443A6BB7
:100DD0005A604C4BBA6C002143F83210BB6C5A1C61
:100DE000BA64484ADB00134400225A60434B012294
:100DF0001A603B68434A1A6077E0484B1B68002B37
:100E00006BD10023FB62464BBB62464BFA6A402122
:100E100043F83210FB6A5A1CFA62424ADB00134460
:100E2000BA6A5A60404B7B623E4BFA6A042143F82F
:100E30003210FB6A5A1CFA623A4ADB0013447A6A9F
:100E40005A603A4B3B62374BFA6A042143F832103E
:100E5000FB6A5A1CFA62334ADB0013443A6A5A604E
:100E6000334BFB612F4BFA6A0C2143F83210FB6ABB
:100E70005A1CFA622B4ADB001344FA695A602D4B64
:100E8000BB61284BFA6A062143F83210FB6A5A1CF0
:100E9000FA62244ADB001344BA695A60264B7B612C
:100EA000204BFA6A012143F83210FB6A5A1CFA629D
:100EB0001C4ADB0013447A695A601A4BFA6A002113
:100EC00043F83210FB6A5A1CFA62164ADB001344DC
:100ED00000225A60114B01221A603B68114A1A60C5
:100EE00003E0012387F84F3000BF97F84F301846D2
:100EF0005437BD465DF8047B704700BFC405002031
:100F0000200000208C050020300000204000002040
:100F100044000020480000204C000020C8050020AC
:100F200038070020C4040020780700207C07002038
:100F3000800700208C0700209207002080B582B037
:100F400000AF786039607B68002B01D002230EE08F
:100F50003B68012B0AD1022000F080FC01F07AF9F5
:100F6000022000F085FC00BF002300E001231846AA
:100F70000837BD4680BD00BF80B483B000AF786045
:100F800039607B68002B01D0022300E00023184663
:100F90000C37BD465DF8047B704700BF80B499B044
:100FA00000AFF8607A603B600B46FB72002387F865
:100FB0005F303B6800221A60FB68002B05D00223DB
:100FC00087F85F3097F85F303DE1FB7A032B00F044
:100FD000CF80042B67D0012B40F02F819D4B1B68E5
:100FE000002B5CD10023BB659B4B7B659B4BBA6D93
:100FF000042143F83210BB6D5A1CBA65974ADB00D6
:1010000013447A6D5A60964B3B65944BBA6D04213C
:1010100043F83210BB6D5A1CBA65904ADB0013448A
:101020003A6D5A608F4BFB648C4BBA6D012143F8CB
:101030003210BB6D5A1CBA65884ADB001344FA6C47
:101040005A60894BBB64854BBA6D012143F832105D
:10105000BB6D5A1CBA65814ADB001344BA6C5A60F6
:10106000824B7B647D4BBA6D012143F83210BB6D1E
:101070005A1CBA65794ADB0013447A6C5A60774B84
:10108000BA6D002143F83210BB6D5A1CBA65734A21
:10109000DB00134400225A606E4B01221A603B6849
:1010A0006E4A1A60CDE0724B1B68002B5CD10023A6
:1010B0003B64694BFB636F4B3A6C042143F832107D
:1010C0003B6C5A1C3A646B4ADB001344FA6B5A605F
:1010D000634BBB63674B3A6C042143F832103B6CA3
:1010E0005A1C3A64634ADB001344BA6B5A605D4B86
:1010F0007B63604B3A6C012143F832103B6C5A1C05
:101100003A645C4ADB0013447A6B5A60564B3B638B
:10111000584B3A6C012143F832103B6C5A1C3A642C
:10112000544ADB0013443A6B5A60504BFB62514BFC
:101130003A6C012143F832103B6C5A1C3A644D4A18
:10114000DB001344FA6A5A604A4B3A6C002143F8B8
:1011500032103B6C5A1C3A64464ADB0013440022AE
:101160005A60434B01221A603B68424A1A6068E0A9
:10117000414B1B68002B5CD10023BB62364B7B626A
:101180003E4BBA6A042143F83210BB6A5A1CBA6259
:101190003A4ADB0013447A6A5A60314B3B62374B60
:1011A000BA6A042143F83210BB6A5A1CBA62334A45
:1011B000DB0013443A6A5A602A4BFB612F4BBA6A30
:1011C000012143F83210BB6A5A1CBA622B4ADB0079
:1011D0001344FA695A60244BBB61284BBA6A012157
:1011E00043F83210BB6A5A1CBA62244ADB0013442B
:1011F000BA695A601D4B7B61204BBA6A012143F8E2
:101200003210BB6A5A1CBA621C4ADB0013447A696A
:101210005A601A4BBA6A002143F83210BB6A5A1C52
:10122000BA62164ADB00134400225A60124B0122B4
:101230001A603B68114A1A6003E0012387F85F30A7
:1012400000BF97F85F3018466437BD465DF8047BF1
:10125000704700BFCC050020980700202C05002017
:101260009C070020A0070020A1070020A207002063
:10127000D00500205C050020D4050020FC040020DF
:1012800080B582B000AF78607B68002B01D002236C
:1012900008E0032000F0E2FA01F052FB032000F026
:1012A000E7FA002318460837BD4680BD80B483B0F6
:1012B00000AF786039607B68002B01D0022300E02A
:1012C000012318460C37BD465DF8047B704700BF0C
:1012D00080B483B000AF786039607B68002B01D0A8
:1012E000022300E0012318460C37BD465DF8047B5D
:1012F000704700BF80B483B000AF0346FB71FB7939
:10130000012B02D0022B02D003E0054B02E0054B7B
:1013100000E0002318460C37BD465DF8047B70479B
:101320005C0600209C06002080B483B000AF78608B
:101330000B467B807B6800221A60012318460C371D
:10134000BD465DF8047B704780B483B000AF786021
:10135000034B18460C37BD465DF8047B704700BF51
:101360006106002080B483B000AF78600B467B80BC
:101370007B6800221A60012318460C37BD465DF8D1
:10138000047B704780B483B000AF7860034B18468D
:101390000C37BD465DF8047B704700BFA1060020F6
:1013A00080B582B000AF786039607868396800F045
:1013B00009F90246064B1A60054B1B68B3F1FF3F63
:1013C00001D1002300E0012318460837BD4680BD47
:1013D000D805002080B500AF064B1B68184600F00A
:1013E00059F90346002B14BF00230123DBB2184632
:1013F00080BD00BFD805002080B588B000AF786000
:1014000013460A46FA703B80FB78FB733B88FB610E
:10141000FB690533BB61FB69BB60FB781846FFF7CE
:1014200069FF78617B69002B01D100231AE0FA7B08
:101430007B691A707B695A1C07F10803104619462C
:10144000042203F01BF8094B1B6818467969BA6936
:1014500000F054F838613B69B3F1FF3F01D100233C
:1014600000E0012318462037BD4680BDD805002086
:1014700080B584B000AF1F4B1A68FB1D104619469B
:10148000012200F06DF8F860FB68B3F1FF3F01D175
:1014900000232BE0174B1A6807F108031046194682
:1014A000042200F05DF8F860FB68B3F1FF3F01D162
:1014B00000231BE00F4B1A68BB6810460E491A4602
:1014C00000F04EF8F860FB68B3F1FF3F01D1002354
:1014D0000CE0FB79012B08D1BB689BB2064819468A
:1014E000FEF7DCFF00BF012300E0002318461037A1
:1014F000BD4680BDD8050020DC05002080B58AB03F
:1015000000AFF860B9607A6000237B62BB683B6221
:101510004FF0FF33FB611BE07A68FB699A4238BFEA
:101520001346BB6107F11403F868396ABA6900F021
:101530005DF878627B6AB3F1FF3F01D17B6A0BE013
:101540007B697A68D31A7B607B693A6A13443B6291
:101550007B68002BE0D17B6A18462837BD4680BDEA
:1015600080B58AB000AFF860B9607A6000237B6212
:10157000BB683B624FF0FF33FB611BE07A68FB699D
:101580009A4238BF1346BB6107F11403F868396A01
:10159000BA6900F051F878627B6AB3F1FF3F01D17C
:1015A0007B6A0BE07B697A68D31A7B607B693A6A55
:1015B00013443B627B68002BE0D17B6A18462837D6
:1015C000BD4680BD80B483B000AF78603960064B03
:1015D000054AD26A42F01002DA62002318460C373C
:1015E000BD465DF8047B704700D0004080B487B0F2
:1015F00000AFF860B9607A603B60BB683B61002374
:101600007B6108E00B4A3B69591C39611B78136008
:101610007B6901337B617A697B689A42F2D33B68CC
:101620007A681A60002318461C37BD465DF8047BB3
:10163000704700BF00D0004080B487B000AFF860B2
:10164000B9607A603B60BB687B613B6800221A60CE
:101650000BE07B695A1C7A610D4A1268D2B21A708B
:101660003B681B685A1C3B681A603B681A687B68B9
:101670009A4205D2064B9B6903F01003002BE8D079
:10168000002318461C37BD465DF8047B704700BF39
:1016900000D0004080B483B000AF786000231846CB
:1016A0000C37BD465DF8047B704700BF80B586B03F
:1016B00000AF0023FB7500233B6101237B60002307
:1016C000FB600023BB60F868B968FFF78BF903463D
:1016D000FB75FB7D002B0CBF00230123DBB23B61BC
:1016E00015E0FFF723F90346FB75FB7D002B0ED0B9
:1016F000FB7D022B09D1FFF79FF90346002B0CBF9E
:1017000000230123DBB23B6101E001233B617B68E5
:10171000002B02D03B69002BE3D03B69002B03D0A8
:1017200000BF7B68002BFCD1FB7D18461837BD46F7
:1017300080BD00BF80B582B000AF104B7B60104B06
:101740003B6007E03B681A1D3A607A68111D7960BA
:1017500012681A603A680B4B9A42F3D30A480B4955
:101760004FF000028842B8BF40F8042BFFF6FAAFF2
:10177000FFF79CFF0837BD4680BD00BF4C46000008
:10178000000000208C04002090040020CC070020E2
:1017900080B400AFFEE700BF80B400AFFEE700BF3B
:1017A00080B400AFFEE700BF80B400AFFEE700BF2B
:1017B00080B582B000AF786000F00AF803480421D9
:1017C0007A68FFF7E3F90837BD4680BDDC060020E4
:1017D00080B400AF064B1A68064B1B68D21A064B42
:1017E0001B681A44044B1A60BD465DF8047B7047C1
:1017F000E0060020E4060020DC06002080B500AFF3
:1018000000F004F90246014B1A6080BDE00600209A
:1018100080B500AF00F0FAF80246014B1A6080BDB7
:10182000E406002080B582B000AF78607868FFF7EA
:10183000BFFFFFF7EDFF0837BD4680BD80B584B020
:1018400000AF78607B68DB43FB60FFF7D7FFF86889
:10185000FFF7AEFF1037BD4680BD00BF80B582B038
:1018600000AF78607868FFF7DDFF0837BD4680BDC0
:1018700080B582B000AF78607868FFF7DFFF083787
:10188000BD4680BD80B500AF11484021FFF76AFD1D
:101890000346002B01D1012318E00D4B1B681846AD
:1018A000FFF770FD02460B4B1A600A4B1A680A4B91
:1018B0001A60084B1B685A1C084B1A60084B002220
:1018C0001A80054B1B6800221A700023184680BD41
:1018D000E8060020EC060020F8060020F0060020B4
:1018E000F406002080B500AFFFF7CCFF0346002BC5
:1018F00001D0012300E00023184680BD80B400AF72
:10190000BD465DF8047B704780B500AF0D4B1A688B
:101910000D4B1B8801339BB2104602211A46FFF77C
:101920006BFD03461A4600239A4201D1032307E0C8
:10193000FFF7A8FF0346002B01D0032300E000239C
:10194000184680BDE8060020F406002080B586B069
:1019500000AF786039600023FB757B683B6137E03E
:101960001F4B1B883A2B08D1FFF7CEFF0346FB75B0
:10197000FB7D002B01D0FB7D2EE0194B1B88C3F1B2
:101980003A03FB81FA893B689A4202D33B689BB2D7
:1019900000E0FB89BB60134B1B6818463969BA68C5
:1019A00002F06CFD3A68BB68D31A3B60BB689AB220
:1019B0000B4B1B8813449AB2094B1A803A69BB68D7
:1019C00013443B61074B1A68BB681A44054B1A6005
:1019D0003B68002BC4D1FB7D18461837BD4680BD3F
:1019E000F4060020F006002080B500AF064B1B680F
:1019F00001221A70FFF788FF0346032B01D103234E
:101A000000E00023184680BDF806002080B483B0B3
:101A100000AF00237B60154B1B78002B11D1144BBA
:101A20001B686FF07F421A60124B1B6807221A6016
:101A3000114B1B686FF07F421A600C4B01221A7029
:101A400007E00D4B1B681B68C3F1FF1303F57F43D1
:101A50007B600A4B1B687A6813447B607B6818467E
:101A60000C37BD465DF8047B704700BFFC060020C4
:101A7000040000200C0000200800002000070020C7
:101A800080B400AF044B1B6803F18072024B1A60F4
:101A9000BD465DF8047B70470007002080B582B02A
:101AA00000AF7860396078684FF0000102F0A6FC62
:101AB0000346002B07D0786801F0DCF902463B684A
:101AC0001A60002304E03B684FF000021A60FF2315
:101AD0005BB218460837BD4680BD00BFB0B586B0C2
:101AE00000AF78603960786801F036F80346002B63
:101AF00005D1386801F030F80346002B03D0444B81
:101B00001B687B617EE0786801F004F80346002BD7
:101B100040D0386800F0FEFF0346002B3AD07868CA
:101B20004FF0000102F074FC0346002B02D00123A9
:101B30003B6102E04FF0FF333B6138684FF000013A
:101B400002F066FC0346002B02D00123FB6002E09A
:101B50004FF0FF33FB60386902F04AFA034618463B
:101B600001F04EFE04460D46F86802F041FA0346C5
:101B7000184601F045FE02460B462046294601F074
:101B800077F902460B461046194602F027F903463C
:101B90007B6137E038684FF0000102F011FC03462A
:101BA000002B19D078684FF0000102F031FC034699
:101BB000002B02D0174B7B6124E078684FF00001C6
:101BC00002F008FC0346002B02D0134B7B6119E0A6
:101BD0004FF000037B6115E0786801F011FE0446C8
:101BE0000D46386801F00CFE02460B462046294699
:101BF00001F03EF902460B461046194602F0EEF897
:101C000003467B617B6918461837BD46B0BD00BFEF
:101C1000A8070020DB0FC93FDB0FC9BF90B587B015
:101C200000AF954B00225A72944B93F82330013346
:101C30003B613B69FF2B01D9FF233B613B69DAB272
:101C40008E4B83F823208D4B93F823305A1E8C4BF8
:101C500053F822303B60894B93F82330DA1D884BD0
:101C600053F822307B603B4618468649864A022359
:101C700000F084FF814B4FF000025A614FF40003E3
:101C80007B61814B1B6823F00043BB60BB68184637
:101C90004FF4000102F0BCFB0346002B1FD0BB68D1
:101CA0004FF40000194602F0ABFA0346FB60734B99
:101CB0005B691846F96802F0EFF903461846F968BF
:101CC00002F0EAF9034618464FF07E5102F0DCF8C4
:101CD00003461A46694B5A61BB687B6116E0BB68D4
:101CE00018464FF4000102F08BFA0346FB60634B89
:101CF0005C69F868F96802F0CFF903462046194696
:101D000002F0C2F803461A465C4B5A615E4B5B68B0
:101D100023F00043BB60BB681846796902F078FB8A
:101D20000346002B1ED0BB687869194602F068FA9A
:101D30000346FB60514B5B691846F96802F0ACF949
:101D400003461846F96802F0A7F9034618464FF013
:101D50007E5102F099F803461A46484B5A61BB6817
:101D60007B6115E0BB681846796902F049FA0346C1
:101D7000FB60424B5C69F868F96802F08DF9034634
:101D80002046194602F080F803461A463B4B5A613A
:101D90003A4B5A6907F1080310461946FFF77EFED1
:101DA000BB681846796902F077F903461A46334B47
:101DB0005A61324B93F82330DA1D314B53F822200D
:101DC0002E4B9B681046194602F05CF803461C46F1
:101DD0002A4B93F823305A1E294B53F82220274BC5
:101DE0005B681046194602F04DF803462046194636
:101DF000FFF774FE03461846244902F04DF90346E6
:101E00001A461E4BDB681046194602F03BF80346A3
:101E10001A461A4B1A61194B93F823305A1E184B65
:101E200053F82220154B5A60144B93F82330DA1DD7
:101E3000134B53F82220114B9A60104BDA680F4B6A
:101E40001B691046194602F01FF803461A460B4B51
:101E5000DA600B4B1A6C094BDA61094B5A6C074B71
:101E60009A61064B5A69044B5A60044B1A69064B37
:101E70009A601C37BD4690BD9807002004070020DB
:101E800038070020080700202C070020E12E6542BB
:101E9000B0B584B000AF654B00221A72644B1A6C67
:101EA000644BDB69D31AFB60614B1B6C002B0ADAB5
:101EB000604BDB69002B06DBFB68002B03DB4FF07C
:101EC0000043FB600DE05A4B1B6C002B09DB594BA8
:101ED000DB69002B05DAFB68002B02DA6FF00043A8
:101EE000FB60F86802F084F803461846194601F0D2
:101EF000CBFF03461A46504B9B6B1046194602F027
:101F0000CBF8034618464D4902F0C6F803461A4678
:101F1000494B5B6B1046194602F072F90346BB60F1
:101F2000434B5A6C434B9B69D31AFB60404B5B6C31
:101F3000002B0ADA3F4B9B69002B06DBFB68002B6A
:101F400003DB4FF00043FB600DE0394B5B6C002B73
:101F500009DB384B9B69002B05DAFB68002B02DAA2
:101F60006FF00043FB60F86802F042F80346184641
:101F7000194601F089FF03461A462F4B9B6B10460A
:101F8000194602F089F8034618462C4902F084F8F5
:101F900003461A46284B5B6B1046194602F030F98F
:101FA00003467B60B868796801F06EFF0346184607
:101FB0004FF0804102F024F903461A461D4B1A6087
:101FC0001C4B5A691B4B1B681046194601F05AFFFF
:101FD00003461A46154B5A60164B1C697868B96857
:101FE00001F050FF03461846154902F055F8034624
:101FF0001D46114B1B6B1846124902F04DF8034663
:1020000018460E4902F048F803462846194602F0E1
:10201000F7F803462046194601F034FF03461A46F6
:10202000094B9A601037BD46B0BD00BF980700202D
:10203000380700200407002010000020DB0F494073
:1020400000003443AE47813F2C07002080B584B0A8
:1020500000AF78607B6823F0004318464FF096414C
:1020600002F0B8F90346002B47D078684FF07C5156
:1020700002F0C4F90346002B17D078684FF07C516A
:1020800001F002FF0346184601F0BAFB02460B4678
:102090001046194600F05CFE02460B4610461946F3
:1020A00001F09CFE0346FB6029E078684FF03F4159
:1020B00002F0AEF90346002B07D078684FF000011C
:1020C00001F0EAFF0346FB6019E078684FF07C51AD
:1020D00001F0D8FE0346184601F092FB02460B467B
:1020E0001046194600F0A4FD02460B46104619465C
:1020F00001F074FE0346FB6001E07B68FB60FB6857
:1021000018461037BD4680BD90B585B000AF7860E9
:10211000396038684FF0000102F052F90346002B95
:1021200002D07B68FB608EE0786800F015FD034606
:10213000002B11D1786800F0EDFC0346002B0BD189
:10214000386800F009FD0346002B05D1386800F01F
:10215000E1FC0346002B03D03D4B1B68FB6072E0A3
:102160007868396802F04CF80346BB60386801F0C3
:1021700047FB02460B461046194600F0E9FD0246B1
:102180000B461046194601F029FE034618463968E9
:1021900002F034F90346002B1BD0B86801F030FB85
:1021A00002460B461046194600F0D2FD02460B4689
:1021B0001046194601F012FE03461846396801F030
:1021C0006BFF03467868194601F05CFE0346FB602E
:1021D00039E0B868FFF73AFF0346B868194601F0DE
:1021E00051FE034623F00044BB6823F00043184629
:1021F0004FF0505101F050FF03462046194602F0BF
:10220000F3F80346002B03D04FF00003FB601AE005
:10221000B86801F0F5FA02460B461046194600F080
:1022200097FD02460B461046194601F0D7FD0346BE
:10223000B868194601F026FE03461846396801F0D1
:102240002BFF0346FB60FB6818461437BD4690BD64
:10225000A8070020B0B588B000AFA74B93F8243092
:102260001E2B07D8A44B93F824300133DAB2A24BCB
:1022700083F82420A04B93F82030002B37D19E4BBD
:10228000012283F820209C4B042283F821209B4BC1
:1022900000221A72994B00225A72974B0022DA617F
:1022A000954B00229A61944B4FF000021A60944BB8
:1022B000D3E908231046194601F090FD02468E4BE3
:1022C0005A608F4BD3E90A231046194601F086FD68
:1022D0000246894B9A60884B4FF00002DA60864BC9
:1022E000002283F82320854B00229A72C1E2824BA0
:1022F00093F82130022B15D0032B2BD0012B40F06B
:10230000A7827D4B93F824301D2B0AD97A4B0222E9
:1023100083F82120794B01229A72784B00225A725D
:10232000A7E2A6E2764B93F83C30002B11D1734B19
:1023300000229A72704B002283F823206E4B0322F6
:1023400083F821206C4B032283F82220FFF766FCE0
:102350008FE28EE2694B5B6818466A4902F03AF8F0
:102360000346002B18D0644B93F82330072B13D966
:10237000614B002283F822205F4B012283F8212049
:102380005D4B002283F824205C4B4FF000025A6022
:102390005A4B01225A725AE2574B93F82230022BC1
:1023A0000CD0032B00F03F82012B40F04382524BB4
:1023B000022283F82220FFF76BFD48E24F4B5B6857
:1023C0001846504902F006F80346002B0FD04A4B3E
:1023D000042283F82220484B002283F82420474B14
:1023E0004FF000025A60454B01225A721AE2424BEA
:1023F0001B681846444902F00BF80346002B00F016
:102400003C813E4B5B68184601F0FAF904460D46E4
:102410003B4BD3E90423104619464FF000023B4BD7
:1024200001F08EF802460B462046294601F0CCFC0E
:102430000346002B00F021812F4B012283F822203C
:102440000023BB772D4B5B681846FFF7FFFDB86094
:10245000B8684FF08E4101F0BDFF0346002B11D04C
:10246000B8684FF0474101F0C9FF0346002B05D083
:10247000B86801F0D7FF0346FB8206E04FF4004343
:10248000FB8202E047F6FF73FB820023FB77BFE08D
:10249000FA7F1F4B243233F81230002B00F0B58046
:1024A000FA7F1B4B243233F812301AB2B7F91630C8
:1024B000D31AFB60FB68B3F5004F03DB47F6FF73ED
:1024C000FB6005E0FB6813F5004F01DA114BFB6080
:1024D000FB689BB21BB2002B1EDAFB689BB21BB2DF
:1024E0005B42FB60FB68B3F5004F02DB47F6FF730E
:1024F000FB60FB687B8311E0040700209807002045
:10250000100000200000E0400000A0400000144047
:10251000380700200080FFFFFB687B83B7F91A3083
:102520000E2B72DC00237B77BB7F002B02D10123B3
:102530007B7764E0BB7F5A1E7D4B243233F8123028
:102540001AB2B7F91630D31AFB60FB68B3F5004F27
:1025500003DB47F6FF73FB6005E0FB6813F5004FF4
:1025600001DA744BFB60FA7F714B243233F812307E
:102570001AB2B7F91630D31A3B613B69B3F5004F75
:1025800003DB47F6FF733B6105E03B6913F5004F42
:1025900001DA684B3B61FB689BB21BB2002B0EDA81
:1025A000FB689BB21BB25B42FB60FB68B3F5004F5C
:1025B00002DB47F6FF73FB60FB687B8301E0FB688F
:1025C0007B833B699BB21BB2002B0EDA3B699BB24B
:1025D0001BB25B42FB60FB68B3F5004F02DB47F6C2
:1025E000FF73FB60FB683B8301E03B693B83B7F90A
:1025F0001A20B7F918309A4201DD01237B777B7FDF
:10260000002B02D0FB7F0133BB77FB7F0133FB77CD
:10261000FB7F052B7FF63CAFBB7F002B2CD0464BBE
:1026200001221A72BB7F5A1E414B243233F81230FA
:102630001BB2184601F0DCFC0246404B5A61BB7FDE
:10264000013B3B4A134493F854305BB2184601F007
:10265000CFFC034618464FF0804101F0D1FD034600
:102660001A46364B1A61324B1A6C344BDA61304BD6
:102670005A6C324B9A61D5E0D4E02F4B00221A728B
:102680002B4B1A6C2D4BDB69D31AFB60284B1B6C50
:10269000002B0ADA294BDB69002B06DBFB68002BD9
:1026A00003DB4FF00043FB600DE0214B1B6C002B64
:1026B00009DB224BDB69002B05DAFB68002B02DA11
:1026C0006FF00043FB60F86801F092FC0346184687
:1026D000194601F0D9FB03461A46194B9B6B10466D
:1026E000194601F0D9FC03461846164901F0D4FCFE
:1026F00003461A46124B5B6B1046194601F080FDEB
:102700000346BB600A4B5A6C0C4B9B69D31AFB60A7
:10271000074B5B6C002B17DA084B9B69002B13DB14
:10272000FB68002B10DB4FF00043FB601AE000BF9A
:10273000380700200080FFFF9807002004070020D2
:1027400010000020DB0F4940594B5B6C002B09DB6C
:10275000584B9B69002B05DAFB68002B02DA6FF0FF
:102760000043FB60F86801F043FC03461846194635
:1027700001F08AFB03461A464F4B9B6B10461946E5
:1027800001F08AFC034618464C4901F085FC0346DB
:102790001A46494B5B6B1046194601F031FD034662
:1027A0007B60B868796801F06FFB034618464FF00C
:1027B000804101F025FD03461A463E4B1A603D4B11
:1027C0005A693C4B1B681046194601F05BFB0346F7
:1027D0001A463B4B5A60374B1C697868B96801F060
:1027E00051FB03461846374901F056FC03461D4687
:1027F000314B1B6B1846344901F04EFC034618461A
:102800002E4901F049FC03462846194601F0F8FC20
:1028100003462046194601F035FB03461A462B4B6A
:102820009A6014E013E0234B022283F82220FFF782
:102830002FFB0CE01F4B93F824301D2B06D91D4BAA
:10284000032283F82220FFF7E9F9FFE700BF10E039
:10285000174B93F85A30002B0AD0164B032283F8FB
:102860002120144B032283F82220FFF7D7F9FFE73A
:1028700000BF114B1A6C154B9B681046194601F0AE
:1028800003FB03461A460C4B5B6C10461946FFF7D8
:102890003BFC0246084B1B6C1046194601F0F2FA4D
:1028A00003461A46064B1A602037BD46B0BD00BF2E
:1028B000380700200407002010000020DB0F4940EB
:1028C0009807002000003443AE47813F2C070020CA
:1028D00080B500AF082000F0E5F8144B00221A6024
:1028E000134800210C2201F03FFE1248002128224B
:1028F00001F03AFE104800215C2201F035FE0F483D
:1029000000210C2201F030FE0A4B002283F8222025
:10291000084B002283F82420064B002283F8202055
:10292000044B002283F8212080BD00BF94070020C3
:102930002C070020040700203807002098070020FB
:1029400080B400AFBD465DF8047B704780B586B0AB
:1029500000AF4023FB604FF000024FF00003C7E9D7
:102960000423FB68202B0AD100F01AF8034618460E
:1029700000F046FF02460B46C7E9042307E0074B79
:102980007B6000233B60D7E90023C7E90423D7E934
:102990000423104619461837BD4680BD0000F07F5D
:1029A00080B483B000AF4FF0FF437B607B68184674
:1029B0000C37BD465DF8047B704700BF80B586B01C
:1029C00000AF4023FB604FF000024FF00003C7E967
:1029D0000423FB68202B0AD100F01AF8034618469E
:1029E00000F00EFF02460B46C7E9042307E0074B41
:1029F0007B6000233B60D7E90023C7E90423D7E9C4
:102A00000423104619461837BD4680BD0000F0FF6C
:102A100080B483B000AF044B7B607B6818460C37F2
:102A2000BD465DF8047B7047000080FF80B586B02E
:102A300000AF4023FB604FF000024FF00003C7E9F6
:102A40000423FB68202B0AD100F01AF8034618462D
:102A500000F0D6FE02460B46C7E9042307E0074B09
:102A60007B6000233B60D7E90023C7E90423D7E953
:102A70000423104619461837BD4680BD0000F8FFF4
:102A800080B483B000AF4FF000037B60044B7B60E9
:102A90007B6818460C37BD465DF8047B704700BF65
:102AA0000000C0FF80B582B000AF7860FFF7BEFFC6
:102AB00002460B461149C1E90023FFF7E1FF024638
:102AC0000F4B1A60FFF742FF02460B460D49C1E962
:102AD0000023FFF765FF02460B4B1A60FFF76EFFFE
:102AE00002460B460949C1E90023FFF791FF024660
:102AF000074B1A600837BD4680BD00BFB8070020ED
:102B0000A8070020B0070020AC070020C007002065
:102B1000C807002080B582B000AF78600C4B1B68FE
:102B20007868194601F04CFC0346002B08D1094B8C
:102B30001B687868194601F043FC0346002B01D05E
:102B4000012300E0002318460837BD4680BD00BFC2
:102B5000AC070020C807002080B582B000AF7860C5
:102B60007868796801F02CFC0346002B01D1012321
:102B700000E0002318460837BD4680BD2DE9F04F20
:102B8000904689B09A08039381460F4604923DD03F
:102B900044460E460546059006911746CDF81C8022
:102BA0006A68D6F804C0D5F808B0D6F80880D5F819
:102BB0000C90D6F80CA055F8100B56F8101B02928A
:102BC000CDF804C001F05EF9DDF804C02060029A7F
:102BD0006146104601F056F941466060584601F0E2
:102BE00051F95146A060484601F04CF9013FE060C0
:102BF00004F11004D4D1049ADDF81490069FDDF896
:102C00001C80130199441F449844039B13F0030450
:102C100009D059F8040B57F8041B01F033F9013CB3
:102C200048F8040BF5D109B0BDE8F08F00000000B2
:102C30002DE9F84FC1F30A57A7F2FF36132E0246CB
:102C40000B4604460D4689468A46804622DC002E05
:102C500054DB3D4F374107EA010C5CEA000C1ED003
:102C600037A3D3E9002300F06DFC0022002301F01C
:102C7000ABF858B1002D05DD4FF4801A4AFA06F67C
:102C800006EB050A2AEA07094FF0000840464946C4
:102C9000BDE8F88F332E06DDB6F5806F43D01046C1
:102CA0001946BDE8F88FA7F2134C4FF0FF3B2BFA03
:102CB0000CFB1BEA000FF2D021A3D3E9002300F0A4
:102CC00041FC0022002301F07FF80028DED0002D17
:102CD0000DDD142E09D0C7F5866703374FF00108C4
:102CE00008FA07F818EB040801D305F1010A28EAED
:102CF0000B08D14640464946BDE8F88F10A3D3E9FA
:102D0000002300F01FFC0022002301F05DF80028E2
:102D1000BCD0002D0DDB55EA040808D0DFF82C905C
:102D20004FF00008B2E700F00DFCBDE8F88FC14697
:102D3000ACE74FF000084FF00049A7E7AFF3008081
:102D40009C7500883CE4377EFFFF0F000000F03FD9
:102D50002DE9F84FC1F30A57A7F2FF36132E0246AA
:102D60000B4604460D4689468A4680461CDC002EEA
:102D700040DB3D4F374107EA010C5CEA000C18D0FC
:102D800037A3D3E9002300F0DDFB0022002301F08C
:102D90001BF828B1002D42DB2AEA07094FF0000892
:102DA00040464946BDE8F88F332E06DDB6F5806F04
:102DB00031D010461946BDE8F88FA7F2134C4FF0FA
:102DC000FF3B2BFA0CFB1BEA000FF2D024A3D3E944
:102DD000002300F0B7FB0022002300F0F5FF0028DD
:102DE000DED0002D22DB28EA0B08D14640464946BA
:102DF000BDE8F88F1AA3D3E9002300F0A3FB00225B
:102E0000002300F0E1FF0028CAD0002D1CDB4FF0AA
:102E10000008C146C4E700F095FBBDE8F88F4FF409
:102E2000801A4AFA06F606EB050AB5E7142E14D006
:102E3000C7F586670123033703FA07F717EB040882
:102E400028BF05EB030ACEE725F00042074B2243DB
:102E500018BF99464FF00008A2E705F1010AC2E742
:102E60009C7500883CE4377EFFFF0F000000F0BF38
:102E700000F04EB870B58AB0054600F041F9224C1A
:102E8000064694F90030013308D0284600F03AFB9A
:102E900020B12846002101F09DFA10B930460AB051
:102EA00070BD1A490122002328460191009208931F
:102EB00000F0A6FC2478CDE90401CDE902017CB93B
:102EC00000220023CDE90623684600F019FB88B1F3
:102ED000089BA3B9DDE9060100F080FF0AB070BDD0
:102EE0000020002102460B4600F008FE022CCDE92E
:102EF0000601E9D101F0BCFA21230360E8E701F003
:102F0000B7FA089B0360E5E758000020FC45000085
:102F10002DE9F047C2F1000949EA020923F000480F
:102F2000DFF8D4C148EAD97982B0E14514461D469C
:102F3000CDE900010F4647D8C0F1000A4AEA000A6D
:102F400021F0004949EADA7AE2453DD803F1404CE4
:102F50000CF5801C5CEA020C4CD04FEAA37A0AF014
:102F6000020A4AEAD17A59EA000136D058EA040145
:102F70003AD06149884551D05F49894534D0C8EB82
:102F800009084FEA2858B8F13C0F43DC002D70DBEC
:102F9000DDE9000100F0B2FD00F0AEFA00F004F946
:102FA000BAF1010F62D0BAF1020F52D0BAF1000F9C
:102FB00010D03FA3D3E9002300F0C2FA3EA3D3E927
:102FC000002300F0BDFA05E010461946DDE90023B4
:102FD00000F0B8FA02B0BDE8F087BAF1030FC5D827
:102FE000DFE80AF00D0D1410002F2EDB34A1D1E91B
:102FF0000001EFE702B0BDE8F04700F0D5B8DDE929
:103000000001E7E730A1D1E90001E3E72AA1D1E916
:103010000001DFE72AA1D1E90001C1E7C1452ED0B7
:10302000BAF1030FA8D801A151F82AF045300000E9
:103030003D3000000D3000000530000000204FF052
:103040000041C7E700200021C4E721A1D1E9000128
:10305000C0E717A3D3E9002300F072FA02460B463B
:1030600015A1D1E9000100F06BFAB3E701F10041CD
:10307000B0E718F13C0F8BDA0020002190E7BAF19D
:10308000030FB1D8DFE80AF006020E0A12A1D1E957
:1030900000019FE712A1D1E900019BE712A1D1E94C
:1030A000000197E712A1D1E9000193E7AFF3008097
:1030B000075C143326A6A13C182D4454FB2109407B
:1030C000182D4454FB21F93F182D4454FB2109C00D
:1030D000182D4454FB21F9BF182D4454FB21E9BF9E
:1030E000182D4454FB21E93FD221337F7CD902C003
:1030F000D221337F7CD902400000F07FAFF3008003
:1031000020F00042B2F1FF4FF8B5044603462DD23D
:103110005AB300283DDBB2F5000F4FEAE0502CD344
:103120007F38C3F31603C20743F4000348BF5B00B4
:10313000002740105B003E4619244FF08072B518FE
:103140009D4202DC5B1BAE181744013C4FEA43036F
:103150004FEA5202F3D113B107F001031F447F106D
:1031600007F17C5707EBC050F8BDF8BD014600F0F1
:1031700093FF214600F088FEF8BD14F400020FD141
:103180005B00190202F10102FAD5C2F101021044FA
:10319000C6E7014600F076FE014601F031F8F8BDC1
:1031A00001221044BCE700BF2DE9F04FB64B21F0DF
:1031B00000469E4283B004460D4689460FDDB34962
:1031C0008E4200F3B38000F0AE80B9F1000F40F3FF
:1031D000EF8091A1D1E9000103B0BDE8F08FAC4BC5
:1031E0009E4200F3BD80A3F1DE739E4240F3A780B0
:1031F0004FF0FF3C22462B4620462946CDF804C01E
:1032000000F052FB02460B4682468B4600F04CFB18
:1032100083A3D3E9002306460F4600F045FB82A3B3
:10322000D3E9002300F08EF932463B4600F03CFB28
:103230007FA3D3E9002300F085F932463B4600F036
:1032400033FB7DA3D3E9002300F07CF932463B46F3
:1032500000F02AFB7AA3D3E9002300F073F9324689
:103260003B4600F021FB78A3D3E9002300F06AF984
:1032700052465B4600F018FB75A3D3E90023824653
:103280008B463046394600F00FFB73A3D3E9002389
:1032900000F056F932463B4600F006FB70A3D3E936
:1032A000002300F04DF932463B4600F0FDFA6EA3D4
:1032B000D3E9002300F044F932463B4600F0F4FA2B
:1032C0006BA3D3E9002300F03BF932463B4600F004
:1032D000EBFADDF804C00246BCF1FF3F0B466BD0B1
:1032E000504659464FEACC0600F02CF922462B46B0
:1032F00000F0DAFA674F684B37441E44D6E90023E2
:1033000000F01EF922462B4600F01AF902460B4641
:10331000D7E9000100F014F9B9F1000F0CDA01F15E
:103320000045294608E000283FF44FAF20462946D3
:1033300022462B4600F006F903B0BDE8F08F4EA3FD
:10334000D3E9002300F0FEF80022544B00F03CFDCE
:1033500000283FF44DAF2046294603B0BDE8F08F6A
:1033600000F0CAF84E4B04469E420D4633DCA3F5EE
:1033700050239E4200F3A58002460B4600F0E2F87F
:103380000022464B00F0DCF8002206460F4620469D
:1033900029464FF0804300F0D5F802460B463046F0
:1033A000394600F0ABFB4FF0000C04460D4621E718
:1033B00033A1D1E90001BFE75046594600F0C2F8F9
:1033C00022462B4600F070FA02460B46204629465C
:1033D00000F0B6F8B0E7334B9E4267DC0022324B78
:1033E00000F0AEF8002206460F46204629462E4B36
:1033F00000F05AFA0022294B00F0A4F802460B46CE
:103400003046394600F07AFB4FF0020C04460D4678
:10341000F0E600BFAFF30080182D4454FB21F93FC4
:1034200011DA22E33AAD903FEB0D76244B7BA93FB6
:10343000513DD0A0660DB13F6E204CC5CD45B73F84
:10344000FF8300922449C23F0D5555555555D53F30
:103450002F6C6A2C44B4A2BF9AFDDE522DDEAD3F24
:103460006D9A74AFF2B0B33F711623FEC671BC3FC4
:10347000C4EB98999999C93F9C7500883CE4377EC4
:10348000182D4454FB21F9BFFFFF0F440000F07FCB
:10349000FFFFDB3F28460000084600000000F03F29
:1034A000FFFFF23FFF7F03400000F83F02460B465C
:1034B00000200F4900F022FB4FF0030C04460D469C
:1034C00098E600220B4B00F03BF8002206460F4620
:1034D00020462946074B00F035F802460B46304699
:1034E000394600F00BFB4FF0010C04460D4681E617
:1034F0000000F0BF0000F03F21F00041704700BF26
:103500000020704730F0004001D102207047A0F544
:103510000003B3F1FE4F01D204207047054B421E59
:103520009A4201D803207047B0F1FF4358425841F6
:10353000704700BFFEFF7F0081F0004102E000BF46
:1035400083F0004330B54FEA41044FEA430594EA63
:10355000050F08BF90EA020F1FBF54EA000C55EA9E
:10356000020C7FEA645C7FEA655C00F0E2804FEA6F
:103570005454D4EB5555B8BF6D420CDD2C4480EA51
:10358000020281EA030382EA000083EA010180EA81
:10359000020281EA0303362D88BF30BD11F0004FCF
:1035A0004FEA01314FF4801C4CEA113102D0404205
:1035B00061EB410113F0004F4FEA03334CEA133340
:1035C00002D0524263EB430394EA050F00F0A78058
:1035D000A4F10104D5F1200E0DDB02FA0EFC22FA53
:1035E00005F2801841F1000103FA0EF2801843FA47
:1035F00005F359410EE0A5F120050EF1200E012A38
:1036000003FA0EFC28BF4CF0020C43FA05F3C01875
:1036100051EBE37101F0004507D54FF0000EDCF1EE
:10362000000C7EEB00006EEB0101B1F5801F1BD397
:10363000B1F5001F0CD349085FEA30004FEA3C0C9B
:1036400004F101044FEA445212F5800F80F09A8091
:10365000BCF1004F08BF5FEA500C50F1000041EB95
:10366000045141EA050130BD5FEA4C0C404141EB99
:10367000010111F4801FA4F10104E9D191F0000FC0
:1036800004BF01460020B1FA81F308BF2033A3F143
:103690000B03B3F120020CDA0C3208DD02F1140C3A
:1036A000C2F10C0201FA0CF021FA02F10CE002F175
:1036B0001402D8BFC2F1200C01FA02F120FA0CFC6E
:1036C000DCBF41EA0C019040E41AA2BF01EB0451B7
:1036D000294330BD6FEA04041F3C1CDA0C340EDCB5
:1036E00004F11404C4F1200220FA04F001FA02F3F8
:1036F00040EA030021FA04F345EA030130BDC4F1B6
:103700000C04C4F1200220FA02F001FA04F340EAAA
:103710000300294630BD21FA04F0294630BD94F05B
:10372000000F83F4801306BF81F480110134013D42
:103730004EE77FEA645C18BF7FEA655C29D094EAB3
:10374000050F08BF90EA020F05D054EA000C04BF31
:103750001946104630BD91EA030F1EBF002100201C
:1037600030BD5FEA545C05D14000494128BF41F0BB
:10377000004130BD14F580043CBF01F5801130BD1F
:1037800001F0004545F0FE4141F470014FF00000AA
:1037900030BD7FEA645C1ABF194610467FEA655C5B
:1037A0001CBF0B46024650EA013406BF52EA0335FD
:1037B00091EA030F41F4002130BD00BF90F0000FEB
:1037C00004BF0021704730B54FF4806404F1320427
:1037D0004FF000054FF0000150E700BF90F0000FE0
:1037E00004BF0021704730B54FF4806404F1320407
:1037F00010F0004548BF40424FF000013EE700BFD7
:1038000042004FEAE2014FEA31014FEA02701FBF66
:1038100012F07F4393F07F4F81F06051704792F038
:10382000000F14BF93F07F4F704730B54FF46074B2
:1038300001F0004521F0004120E700BF50EA0102FD
:1038400008BF704730B54FF000050AE050EA0102AA
:1038500008BF704730B511F0004502D5404261EB1A
:1038600041014FF4806404F132045FEA915C3FF45B
:10387000DCAE4FF003025FEADC0C18BF03325FEAF4
:10388000DC0C18BF033202EBDC02C2F1200300FAA9
:1038900003FC20FA02F001FA03FE40EA0E0021FACE
:1038A00002F11444C1E600BF70B54FF0FF0C4CF4B8
:1038B000E06C1CEA11541DBF1CEA135594EA0C0F6E
:1038C00095EA0C0F00F0DEF82C4481EA030621EAA9
:1038D0004C5123EA4C5350EA013518BF52EA0335E4
:1038E00041F4801143F4801338D0A0FB02CE4FF096
:1038F0000005E1FB02E506F00042E0FB03E54FF0C6
:103900000006E1FB03569CF0000F18BF4EF0010EBD
:10391000A4F1FF04B6F5007F64F5407404D25FEAB9
:103920004E0E6D4146EB060642EAC62141EA55516C
:103930004FEAC52040EA5E504FEACE2EB4F1FD0CAE
:1039400088BFBCF5E06F1ED8BEF1004F08BF5FEA2C
:10395000500E50F1000041EB045170BD06F00046DE
:1039600046EA010140EA020081EA0301B4EB5C048B
:10397000C2BFD4EB0C0541EA045170BD41F4801183
:103980004FF0000E013C00F3AB8014F1360FDEBFA8
:10399000002001F0004170BDC4F10004203C35DA84
:1039A0000C341BDC04F11404C4F1200500FA05F307
:1039B00020FA04F001FA05F240EA020001F00042A8
:1039C00021F0004110EBD37021FA04F642EB06011E
:1039D0005EEA430E08BF20EAD37070BDC4F10C0448
:1039E000C4F1200500FA04F320FA05F001FA04F20C
:1039F00040EA020001F0004110EBD37041F10001F8
:103A00005EEA430E08BF20EAD37070BDC4F1200502
:103A100000FA05F24EEA020E20FA04F301FA05F26A
:103A200043EA020321FA04F001F0004121FA04F212
:103A300020EA020000EBD3705EEA430E08BF20EAE2
:103A4000D37070BD94F0000F0FD101F0004640001C
:103A500041EB010111F4801F08BF013CF7D041EA9E
:103A6000060195F0000F18BF704703F000465200A2
:103A700043EB030313F4801F08BF013DF7D043EA73
:103A80000603704794EA0C0F0CEA135518BF95EA29
:103A90000C0F0CD050EA410618BF52EA4306D1D1B0
:103AA00081EA030101F000414FF0000070BD50EACF
:103AB000410606BF1046194652EA430619D094EA59
:103AC0000C0F02D150EA013613D195EA0C0F05D143
:103AD00052EA03361CBF104619460AD181EA030197
:103AE00001F0004141F0FE4141F470014FF000004F
:103AF00070BD41F0FE4141F4780170BD70B54FF0EA
:103B0000FF0C4CF4E06C1CEA11541DBF1CEA135569
:103B100094EA0C0F95EA0C0F00F0A7F8A4EB05044B
:103B200081EA030E52EA03354FEA013100F0888042
:103B30004FEA03334FF0805545EA131343EA12630B
:103B40004FEA022245EA111545EA10654FEA0026C0
:103B50000EF000419D4208BF964244F1FD0404F579
:103B6000407402D25B084FEA3202B61A65EB0305D5
:103B70005B084FEA32024FF480104FF4002CB6EB92
:103B8000020E75EB030E22BFB61A754640EA0C0012
:103B90005B084FEA3202B6EB020E75EB030E22BF52
:103BA000B61A754640EA5C005B084FEA3202B6EB93
:103BB000020E75EB030E22BFB61A754640EA9C0052
:103BC0005B084FEA3202B6EB020E75EB030E22BF22
:103BD000B61A754640EADC0055EA060E18D04FEAE0
:103BE000051545EA16754FEA06164FEAC30343EA80
:103BF00052734FEAC2025FEA1C1CC0D111F4801F4D
:103C00000BD141EA00014FF000004FF0004CB6E745
:103C100011F4801F04BF01430020B4F1FD0C88BFE4
:103C2000BCF5E06F3FF6AFAEB5EB030C04BFB6EBEF
:103C3000020C5FEA500C50F1000041EB045170BDE2
:103C40000EF0004E4EEA113114EB5C04C2BFD4EB0F
:103C50000C0541EA045170BD41F480114FF0000E93
:103C6000013C90E645EA060E8DE60CEA135594EA0F
:103C70000C0F08BF95EA0C0F3FF43BAF94EA0C0F12
:103C80000AD150EA01347FF434AF95EA0C0F7FF487
:103C900025AF104619462CE795EA0C0F06D152EADB
:103CA00003353FF4FDAE1046194622E750EA4106BF
:103CB00018BF52EA43067FF4C5AE50EA41047FF4D0
:103CC0000DAF52EA43057FF4EBAE12E74FF0FF3C35
:103CD00006E000BF4FF0010C02E000BF4FF0010C06
:103CE0004DF804CD4FEA410C7FEA6C5C4FEA430C7F
:103CF00018BF7FEA6C5C1BD001B050EA410C0CBFCE
:103D000052EA430C91EA030F02BF90EA020F00202F
:103D1000704710F1000F91EA030F58BF994208BF96
:103D200090422CBFD8176FEAE37040F00100704753
:103D30004FEA410C7FEA6C5C02D150EA013C07D1AA
:103D40004FEA430C7FEA6C5CD6D152EA033CD3D0F5
:103D50005DF8040B704700BF8446104662468C46EF
:103D60001946634600E000BF01B5FFF7B7FF002822
:103D700048BF10F1000F01BD4DF808EDFFF7F4FF4B
:103D80000CBF012000205DF808FB00BF4DF808EDD6
:103D9000FFF7EAFF34BF012000205DF808FB00BFF9
:103DA0004DF808EDFFF7E0FF94BF012000205DF81B
:103DB00008FB00BF4DF808EDFFF7CEFF94BF0120D0
:103DC00000205DF808FB00BF4DF808EDFFF7C4FFC9
:103DD00034BF012000205DF808FB00BF4FEA41021C
:103DE000B2F1E04324BFB3F5001CDCF1FE5C0DD959
:103DF00001F0004C4FEAC0024CEA5070B2F1004FA3
:103E000040EB830008BF20F00100704711F0804FA5
:103E100021D113F13872BCBF01F00040704741F46A
:103E200080114FEA5252C2F11802C2F1200C10FA6E
:103E30000CF320FA02F018BF40F001004FEAC12352
:103E40004FEAD32303FA0CFC40EA0C0023FA02F3F6
:103E50004FEA4303CCE77FEA625307D150EA0133CC
:103E60001EBF4FF0FE4040F44000704701F000409C
:103E700040F0FE4040F40000704700BF80F000407A
:103E800002E000BF81F0004142001FBF5FEA410332
:103E900092EA030F7FEA226C7FEA236C6AD04FEA32
:103EA0001262D2EB1363C1BFD21841404840414077
:103EB000B8BF5B42192B88BF704710F0004F40F429
:103EC000000020F07F4018BF404211F0004F41F445
:103ED000000121F07F4118BF494292EA030F3FD011
:103EE000A2F1010241FA03FC10EB0C00C3F1200324
:103EF00001FA03F100F0004302D5494260EB4000B3
:103F0000B0F5000F13D3B0F1807F06D340084FEA1D
:103F1000310102F10102FE2A51D2B1F1004F40EB12
:103F2000C25008BF20F0010040EA0300704749007A
:103F300040EB000010F4000FA2F10102EDD1B0FA45
:103F400080FCACF1080CB2EB0C0200FA0CF0AABF3A
:103F500000EBC25052421843BCBFD04018437047D8
:103F600092F0000F81F4000106BF80F400000132DE
:103F7000013BB5E74FEA41037FEA226C18BF7FEAB5
:103F8000236C21D092EA030F04D092F0000F08BFF7
:103F90000846704790EA010F1CBF0020704712F0DE
:103FA0007F4F04D1400028BF40F00040704712F11D
:103FB00000723CBF00F50000704700F0004343F082
:103FC000FE4040F4000070477FEA226216BF0846B8
:103FD0007FEA23630146420206BF5FEA412390EA7B
:103FE000010F40F4800070474FF0000304E000BF71
:103FF00010F0004348BF40425FEA000C08BF704722
:1040000043F0964301464FF000001CE050EA0102E5
:1040100008BF70474FF000030AE000BF50EA0102FA
:1040200008BF704711F0004302D5404261EB4101E7
:104030005FEA010C02BF84460146002043F0B6430C
:1040400008BFA3F18053A3F50003BCFA8CF2083A31
:10405000A3EBC25310DB01FA02FC634400FA02FC3A
:10406000C2F12002BCF1004F20FA02F243EB020041
:1040700008BF20F00100704702F1200201FA02FCA3
:10408000C2F1200250EA4C0021FA02F243EB020096
:1040900008BF20EADC7070474FF0FF0C1CEAD052DA
:1040A0001EBF1CEAD15392EA0C0F93EA0C0F6FD09B
:1040B0001A4480EA010C400218BF5FEA41211ED079
:1040C0004FF0006343EA501043EA5111A0FB013165
:1040D0000CF00040B1F5000F3EBF490041EAD3713A
:1040E0005B0040EA010062F17F02FD2A1DD8B3F1B6
:1040F000004F40EBC25008BF20F00100704790F025
:10410000000F0CF0004C08BF49024CEA502040EA76
:1041100051207F3AC2BFD2F1FF0340EAC25070473C
:1041200040F400004FF00003013A5DDC12F1190F7A
:10413000DCBF00F000407047C2F10002410021FAEC
:1041400002F1C2F1200200FA02FC5FEA310040F104
:10415000000053EA4C0308BF20EADC70704792F07D
:10416000000F00F0004C02BF400010F4000F013AB5
:10417000F9D040EA0C0093F0000F01F0004C02BFB0
:10418000490011F4000F013BF9D041EA0C018FE71F
:104190000CEAD15392EA0C0F18BF93EA0C0F0AD025
:1041A00030F0004C18BF31F0004CD8D180EA01004B
:1041B00000F00040704790F0000F17BF90F0004FE4
:1041C000084691F0000F91F0004F14D092EA0C0FC6
:1041D00001D142020FD193EA0C0F03D14B0218BF59
:1041E000084608D180EA010000F0004040F0FE409F
:1041F00040F40000704740F0FE4040F4400070473B
:104200004FF0FF0C1CEAD0521EBF1CEAD15392EAB9
:104210000C0F93EA0C0F69D0A2EB030280EA010CA9
:1042200049024FEA402037D04FF0805343EA111142
:1042300043EA10130CF000408B4238BF5B0042F1A0
:104240007D024FF4000C8B4224BF5B1A40EA0C0045
:10425000B3EB510F24BFA3EB510340EA5C00B3EB77
:10426000910F24BFA3EB910340EA9C00B3EBD10F65
:1042700024BFA3EBD10340EADC001B0118BF5FEAB7
:104280001C1CE0D1FD2A3FF650AF8B4240EBC250E0
:1042900008BF20F0010070470CF0004C4CEA5020A1
:1042A0007F32C2BFD2F1FF0340EAC250704740F4F0
:1042B00000004FF00003013A37E792F0000F00F0E2
:1042C000004C02BF400010F4000F013AF9D040EA60
:1042D0000C0093F0000F01F0004C02BF490011F4F4
:1042E000000F013BF9D041EA0C0195E70CEAD153EC
:1042F00092EA0C0F08D142027FF47DAF93EA0C0FD3
:104300007FF470AF084676E793EA0C0F04D14B02B6
:104310003FF44CAF08466EE730F0004C18BF31F068
:10432000004CCAD130F000427FF45CAF31F0004362
:104330007FF43CAF5FE700BF4FF0FF3C06E000BFFB
:104340004FF0010C02E000BF4FF0010C4DF804CD1E
:104350004FEA40024FEA41037FEA226C18BF7FEA2E
:10436000236C11D001B052EA530C18BF90EA010F30
:1043700058BFB2EB030088BFC81738BF6FEAE170BF
:1043800018BF40F0010070477FEA226C02D15FEA5B
:10439000402C05D17FEA236CE4D15FEA412CE1D0C7
:1043A0005DF8040B704700BF844608466146FFE78E
:1043B0000FB5FFF7C9FF002848BF10F1000F0FBD70
:1043C0004DF808EDFFF7F4FF0CBF012000205DF869
:1043D00008FB00BF4DF808EDFFF7EAFF34BF0120EE
:1043E00000205DF808FB00BF4DF808EDFFF7E0FF87
:1043F00094BF012000205DF808FB00BF4DF808EDD8
:10440000FFF7D2FF94BF012000205DF808FB00BF3A
:104410004DF808EDFFF7C8FF34BF012000205DF81C
:1044200008FB00BF4FEA4002B2F1FE4F0FD34FF03E
:104430009E03B3EB12620DD94FEA002343F0004311
:1044400010F0004F23FA02F018BF404270474FF0BF
:104450000000704712F1610F01D1420205D110F046
:10446000004008BF6FF0004070474FF000007047F9
:10447000014B1868704700BF88040020844641EA59
:10448000000313F0030349D1403A23D30B680360C0
:104490004B6843608B688360CB68C3600B690361C2
:1044A0004B6943618B698361CB69C3610B6A0362AA
:1044B0004B6A43628B6A8362CB6AC3620B6B036392
:1044C0004B6B43638B6B8363CB6BC3634030403177
:1044D000403ADBD230320BD30B6803604B68436049
:1044E0008B688360CB68C36010301031103AF3D210
:1044F0000C3205D351F8043B40F8043B043AF9D29E
:10450000043208D0D2071CBF11F8013B00F8013B70
:1045100001D30B8803806046704700BF082A13D37D
:104520008B07B1D010F00303AED0C3F10403D21A4D
:10453000DB071CBF11F8013B00F8013BA4D331F8A5
:10454000023B20F8023B9FE7043AD9D3013A11F825
:10455000013B00F8013BF9D20B7803704B784370B4
:104560008B78837060467047F0B4840743D0541E44
:10457000002A3ED0CDB2034603E0621E002C38D0A4
:10458000144603F8015B9A07F7D1032C2AD9CDB260
:1045900045EA05250F2C45EA054515D9A4F1100774
:1045A0003F0903F1100606EB07161A461560556021
:1045B0009560D5601032B242F8D104F00F04013793
:1045C000032C03EB07130DD91E462246043A032A97
:1045D00046F8045BFAD8221F22F003020432134487
:1045E00004F003042CB1C9B21C4403F8011BA3421C
:1045F000FBD1F0BC704714460346C6E77371727472
:104600006600000000000000E2652F227F2B7A3C4C
:10461000075C143326A6813CBDCBF07A8807703C3A
:10462000075C143326A6913C4FBB610567ACDD3FA8
:10463000182D4454FB21E93F9BF681D20B73EF3FC9
:0C464000182D4454FB21F93F43000000FA
:10464C000100000014E000E018E000E010E000E0E1
:10465C0000000000000035400000000000805640C3
:10466C00000000000000384000000000000059402D
:10467C00000000000000494000000000000049401C
:10468C009A99814100001F44CDCC54400000000099
:10469C00000034430000B44301000000000000009F
:1046AC00000000004C030020B40300201C04002078
:1046BC0000000000000000000000000000000000EE
:1046CC0000000000000000000000000000000000DE
:1046DC000000000048460000000000000000000040
:1046EC0000000000000000000000000000000000BE
:1046FC0000000000000000000000000000000000AE
:10470C00000000000000000000000000000000009D
:10471C00000000000000000000000000000000008D
:10472C00000000000000000000000000000000007D
:10473C00000000000000000000000000000000006D
:10474C00000000000000000001000000000000005C
:10475C000E33CDAB34126DE6ECDE05000B00000021
:10476C00000000000000000000000000000000003D
:10477C00000000000000000000000000000000002D
:10478C00000000000000000000000000000000001D
:10479C00000000000000000000000000000000000D
:0C4ACC000000000000000000600000205E
:0400000300001735AD
:00000001FF
